:100000000C9449020C9490020C9490020C941A0CDB
:100010000C9490020C9490020C9490020C94900218
:100020000C9490020C9490020C94AC210C948022BD
:100030000C94EA180C9490020C9490020C94900288
:100040000C9490020C9490020C9490020C949002E8
:100050000C9490020C9435190C9490020C9490021C
:100060000C9490020C9490020C9490020C949002C8
:100070000C9490020C9490020C9490020C949002B8
:100080000C9490020C9490020C9490020C949002A8
:100090000C9490020C9490020C9490020C94900298
:1000A0000C9490020C9490020C9490020A00253457
:1000B00064004572726F723A20646973636F6E6E8A
:1000C0006563742073706C69742068616C660A00E3
:1000D0000A0029001E001F0020002100220023002A
:1000E00000005300350014001A0008001500170026
:1000F0004C000000E20004001600070009000A009E
:100100002B000153E0001D001B0006001900050034
:100110008B004A004E004B004D002C007600E100A1
:10012000390024002500260027002D002E0089001C
:10013000000049001C0018000C00120013002F00E2
:100140003000000058000B000D000E000F003300BF
:1001500034002C0011001000360037003800320047
:1001600087008800E500E3002A005000520051009B
:100170004F0001003A003B003C003D003E003F00C4
:10018000000001000000000000000000000000006E
:10019000010000000100000000000000000000005D
:1001A000010001000100000000000000000000004C
:1001B0000100010001000100010001000100010037
:1001C0000100400041004200430001000100010025
:1001D000000001000000000000000000000001001D
:1001E000010000000100000000000000010001000B
:1001F00001000100000000000100010001000100F9
:1002000001000100010001000100010001000100E6
:10021000010044454255473A2064697361626C6548
:10022000642E0A0044454255473A20656E61626C6F
:1002300065642E0A000A0025303862003A20002545
:10024000303258000A722F63203031323334353661
:10025000370A000A002530325820006B6579626F3A
:100260006172645F7265706F72743A20000A0025D3
:10027000303258006B6579626F6172645F736574C8
:100280005F6C65643A2000290A002575002F00255F
:1002900075005D28002564002000256400200025ED
:1002A000640020002564007C0025303258006D6F0A
:1002B0007573656B6579205B62746E7C782079203C
:1002C0007620685D287265702F61636C293A205B27
:1002D000005B735D004B6579626F617264207374BB
:1002E0006172742E0A005B575D005B535D005B52C8
:1002F0005D005B445D005B435D0030034D006900C1
:10030000630072006F00200054004C002000530076
:1003100070006C006900740020004B0065007900DB
:1003200062006F006100720064000000100373003F
:100330006100740072006F006D006900000004032A
:10034000090409025B00030100A0FA09040000018E
:10035000030101000921110100012240000705816C
:100360000308000A0904010001030000000921112B
:100370000100012281000705820320000A0904020E
:1003800000020300000009211101000122220007E0
:10039000058303200001070503032000011201105B
:1003A0000100000008EDFEEC7001000102000106F2
:1003B00031FF0974A1010975150026FF009520750C
:1003C0000881020976150026FF0095207508910224
:1003D000C005010902A10185020901A10005091951
:1003E0000129051500250195057501810295017505
:1003F0000381010501093009311581257F950275B9
:1004000008810609381581257F9501750881060543
:100410000C0A38021581257F950175088106C0C038
:1004200005010980A101850319012AB700150126DC
:10043000B700950175108100C0050C0901A1018567
:100440000419012AA002150126A002950175108148
:1004500000C005010906A101050719E029E71500FB
:10046000250195087501810295017508810105072F
:10047000190029FF150026FF009506750881000563
:1004800008190129059505750191029501750391DA
:1004900001C011241FBECFEFDAE0DEBFCDBF04B62E
:1004A00003FE27C08091330390913403A09135035C
:1004B000B09136038730904BA740B04BD1F41092E7
:1004C000330310923403109235031092360314BE96
:1004D00084B7877F84BF0FB6F894A8958091600099
:1004E000886180936000109260000FBEE0E0F8E346
:1004F000099511E0A0E0B1E0E6EAF9E402C0059058
:100500000D92A43AB107D9F723E0A4EAB1E001C003
:100510001D92A333B207E1F70E94E31E0C94AD24B1
:100520000C940000FF93EF93E091A401F091A501DA
:10053000309709F00995EF91FF910895FC0185919D
:10054000803011F0EFDFFBCF0895FF27E0E230E2CB
:1005500047FF0CC0419597FF09C0EDE2609570958B
:1005600080959095611D711D811D911D27FF02C011
:10057000219530E350E2AA27660F771F881F991F45
:10058000AA1FA41710F0A41B63955A95A9F7AA30C7
:1005900008F0A95FA05DAF93F39561157105810522
:1005A000910541F7ED3211F4EF93F395F21718F43A
:1005B0003F93F395FBCF8F91B5DFFA95E1F708955F
:1005C000E991F9918591803021F0853219F0AADF07
:1005D000F9CF089520E0E89455915532C1F3503396
:1005E00011F4689455915A3348F4505390F3220F04
:1005F000022E220F220F200D250FF4CF0EF421958D
:1006000089919991533619F3533729F1533559F19B
:10061000BC0188279927E8945C3621F48991999147
:1006200068945591543639F446EF7EF077FF0DC04B
:100630008FEF9FEF0AC055374AE039F0583540E157
:1006400021F0523642E009F00895FF93EF937DDFE9
:10065000EF91FF91B7CFFF93EF93FC018191803031
:10066000B9F360DFFBCFFF93EF9368DFF1CFDF9348
:10067000CF93CDB7DEB72596A3DFCF91DF91089555
:10068000807C809300010895873901F178F48633E6
:10069000F9F030F48433F1F08533F1F08FE108950F
:1006A0008439E1F08639D1F781E20895843FC1F0C1
:1006B00030F4803FB9F0813F89F781E00895863FAB
:1006C00099F0A0F0873F51F787E0089582E20895FE
:1006D00085E2089583E2089584E2089580E2089512
:1006E00084E0089580E0089586E0089585E0089507
:1006F00096E890937A00982F9072906890937B0080
:100700008F7190910001892B80937C0080917A00F9
:10071000806480937A0080917A0086FDFCCF80917E
:1007200078002091790090917A009F7790937A00D9
:10073000922F08950E9444030C947803CF93DF9383
:10074000EC0188819981AA81BB81809346029093B4
:100750004702A0934802B09349022A98229A80E463
:100760000E944003AEE2B1E043E351E061E070E09B
:100770008D91E82FE295EF70F0E021A18F70EB01F1
:1007800002C0CC0FDD1F8A95E2F7CE01922F982B85
:1007900091A392A18095892382A34A175B0741F711
:1007A000A3E2B1E026E231E061E070E08D91E82F54
:1007B000E295EF70F0E091A18F70AB0101C0440FA2
:1007C0008A95EAF7892F842B81A32A173B0771F7B3
:1007D00022982A9890E080E0DF91CF910895CF93FE
:1007E000229AE62FF0E0EA5DFE4F908190FF39C03B
:1007F0008C9A91FF38C08D9A92FF37C08E9AAEE2E4
:10080000B1E063E371E041E050E09D91E92FE295B2
:10081000EF70F0E0C2A19F709A0101C0220F9A957B
:10082000EAF720952C2322A36A177B0771F7F89427
:1008300022982A98E82FF0E0E25DFE4F8081E82FB1
:10084000E295EF70F0E092A18F7001C0440F8A959D
:10085000EAF7492B42A386E30E949A037894CF914A
:1008600008958C98C6CF8D98C7CF8E98C8CFFC01BD
:100870009081292F30E0062E02C0359527950A94E5
:10088000E2F720FF12C02091460230914702421742
:100890005307D0F421E030E001C0220F6A95EAF757
:1008A00020952923208381E00895209148023091EA
:1008B00049022417350740F421E030E001C0220F3F
:1008C0006A95EAF7292BEECF80E00895DF92EF9248
:1008D000FF920F931F93CF93DF938C01F12CE12CA8
:1008E000D0E0C0E0D12CC530D10581F48FEFE81AFB
:1008F000F80A88E0E816F10429F58D2DDF91CF91F3
:100900001F910F91FF90EF90DF9008956E2D8C2F27
:100910000E94EF03FE0123E0EE0FFF1F2A95E1F78F
:10092000EE0DFF1DEE0FFF1FEA55FE4F91838083F2
:10093000AC016E2DC8018C0F9D1F0E943704D82A70
:100940002196D1CFD0E0C0E0CECFAF92BF92CF9270
:10095000DF92EF92FF920F931F93CF93DF9306EAFC
:1009600011E08EEAC82E80E0D82E9CEAA92E90E0F5
:10097000B92EE801F12CE12C8881998122969F9370
:100980008F93DF92CF920E9437038FEFE81AF80A15
:100990000F900F900F900F9088E0E816F10461F728
:1009A000BF92AF920E943703005F1F4F0F900F90CE
:1009B00081E0063F1807E9F6DF91CF911F910F9173
:1009C000FF90EF90DF90CF90BF90AF900895089583
:1009D000CF93DF9300D000D0CDB7DEB70E94FB08E5
:1009E00080911F0190912001A0912101B0912201DD
:1009F00089839A83AB83BC83CE0101960E949E03B8
:100A00008091010195E0811190E090930B0385E0C6
:100A1000891B80930A030E9405090F900F900F9085
:100A20000F90DF91CF910895CF930E946604C82F55
:100A300080914B0290914C029C012F5F3F4F8C3272
:100A4000914039F030934C0220934B028C2FCF9180
:100A5000089510924C0210924B020E94A50480ED62
:100A600090E00E949E02F2CF0E94DD08882359F197
:100A700080910A0390E08A5E9C4F0E9418098111C0
:100A80001FC080914A028F5F80934A028531B0F087
:100A90008091EE0280FF08C082EB90E09F938F93DD
:100AA0000E9437030F900F90E0910A03F0E0EA5E96
:100AB000FC4F108211821282138214820C94E7057B
:100AC00010924A02FBCF80910B0390E08A5E9C4F0C
:100AD0000E9431090C94E704CF938CE093E00E94CC
:100AE0001405C82F60910B0370E06A5E7C4F282FBD
:100AF00045E08CE093E00E94A7080E9434058C2F0B
:100B0000CF910895509A589A08950E9482050C94A6
:100B1000590D879A8F9A0C94570D81E0089581E0C2
:100B200008950C948F0508950C9493051F93CF930B
:100B3000DF9300D000D00F92CDB7DEB749835A8340
:100B40006B8330916E0289819A8131111DC06623B9
:100B5000B9F02223A9F00E943E16182F682F898130
:100B60009A810E94E91569817A81812F0F900F90F7
:100B70000F900F900F90DF91CF911F910C945A0618
:100B80000E941616182FEFCF0E943E1669817A81B7
:100B9000EDCFFC01262F40815181628173818481D8
:100BA0000C949605CF93DF93EC0160E00E94C90599
:100BB000BE01DF91CF910C9494050E946C190E94A4
:100BC0009817811102C00E943C180C9444080C94A0
:100BD000470808950E94C8110E94E9052FEF84E399
:100BE0009CE0215080409040E1F700C000000C9450
:100BF00059190F931F93CF93DF93EC0161E00E948B
:100C0000C9058C01BE010E949105882311F1BE0126
:100C1000C8010E94CB098823E1F0BE01C8010E94EF
:100C20001D0A8823B1F0BE01C8010E94400B882331
:100C300081F08A81882341F101308CE5180779F031
:100C40000F3D8CE51807E9F001151C45E9F40E94F9
:100C5000EA0580E0DF91CF911F910F910895909167
:100C6000EE02892F8E7F90FF81608093EE0280FFDD
:100C700005C084E292E00E949E02EBCF82E192E006
:100C8000FACF0E943C18E5CFCE01DF91CF911F91A2
:100C90000F910C948D0508950C944B0681E00895F6
:100CA0000C944E06CF93C82F0E944C068C2FCF91E8
:100CB0000C945006E72FF0E09AE0899FE00DF11DBB
:100CC000112483E0EE0FFF1F8A95E1F7E60FF11D77
:100CD000EE0FFF1FEE52FF4F859194910895CF9331
:100CE000DF930E945A060E946907EC01811521E5F5
:100CF000920708F042C0811530E5930708F09DC0C7
:100D0000883E910530F5803E910508F092C0883A02
:100D1000910588F4853A910508F084C081309105E9
:100D200009F487C0009709F484C0049708F081C0D3
:100D3000D0E0C0E07EC08F3B9105D0F7C85AD0E02C
:100D4000CC0FDD1FCD5CDE4F0990D881C02DD4645F
:100D500070C08115904250F4C11581E0D80708F0A9
:100D600068C0C03FD10520F3D06563C0C11590E4D1
:100D7000D907F0F2DF70D06A5CC0811525E59207D3
:100D800000F5811534E5930708F08BC0811543E524
:100D9000940708F073C0C11582E5D80708F469C04C
:100DA000CE018370992721E030E002C0220F331F6B
:100DB0008A95E2F7C695C69580E2C89FE0011124A6
:100DC00054C0C11599E5D907A8F4C11528E5D20783
:100DD00008F06CC0C11536E5D30708F0A9CF8C2FF9
:100DE0000E940008C82FD0E0DC2FCC27CC27DF7171
:100DF000D0621FC0C1154AE5D40708F45CC0CE011B
:100E000090568115904208F093CF8D2F8F710E94DC
:100E1000000890E0982F882788279F719C012C2B31
:100E2000E901E6CFC55AD0E0CF59DE4FC881D0E006
:100E3000D064CE01DF91CF910895E4E09695879537
:100E4000EA95E1F783702C2F26952695237040E2D2
:100E5000249F90011124382B8C2F8370C1E0D0E0A7
:100E600002C0CC0FDD1F8A95E2F7C22BD32BDC68C2
:100E7000E0CFDC2FCC27C16FD06ADBCF83709927FE
:100E800021E030E002C0220F331F8A95E2F7C695B9
:100E9000C69590E2C99FE0011124C22BD32BDA68DA
:100EA000C8CFD82FCC27C46FD06AC3CFDC2FCC27B4
:100EB000C06FD06ABECF8C2F8F700E94000834E0C4
:100EC000D695C7953A95E1F7CF709C2FEC01D06984
:100ED000B0CF82389105B1F1B0F48133910509F4B6
:100EE00075C048F48932910509F469C08A329105C8
:100EF00009F473C008958533910509F459C0893305
:100F0000910501F10895833E9105A9F138F4803EE1
:100F10009105F9F0823E910549F10895863E9105CB
:100F2000A9F1873E9105C9F1843E910519F52091FB
:100F3000250321FF1FC08091240384FD14C087EE88
:100F400090E00895209124032370A1F080EE90E0BA
:100F500008952091240320FD47C03091250330FFE0
:100F600009C024FF44C090E080E004C02091240325
:100F700022FDF7CF08952091240322FD3BC030913C
:100F8000250330FDE3CF24FFF5CFEDCF20912403DF
:100F900023FFF0CF24FDE7CFD2CF2091240323FD00
:100FA0002CC03091250331FFEECF84EE90E0089500
:100FB0002091240325FFDECF89E290E0089520915F
:100FC000240325FFD7CF85E390E0089520912403E3
:100FD00026FFD0CF8AE290E008952091240326FFD7
:100FE000C9CF81E390E0089589E390E0089583EE0E
:100FF00090E0089582EE90E0089586EE90E00895E6
:101000009091240392FF06C0282F28712830F9F40C
:10101000877F846093FF06C0282F28712831F1F460
:10102000877E84612091250320FF06C0382F387108
:101030003830D9F4877F816021FF06C0282F2871BE
:101040002831D1F4877E816194FD877E0895282F11
:1010500024712430F9F68B7F8860DCCF282F24712F
:10106000243101F78B7E8861DDCF382F317131302B
:1010700019F78E7F8860E0CF282F2171213121F769
:101080008E7E8861E1CF08950C94430808950C94F6
:101090004608E82FF0E0EA5EFC4F80810895CF9289
:1010A000DF92EF92FF920F931F93CF93DF9384E42D
:1010B00092E00E949E0286E1E82E83E0F82ED0E0C6
:1010C000C0E09FE3C92E92E0D92E07E312E0DF9340
:1010D000CF93DF92CF920E9437038CE392E00E947D
:1010E0009E02F70181917F010E947A171F928F93D0
:1010F0001F930F930E94370385E392E00E949E02A4
:1011000021968DB79EB708960FB6F8949EBF0FBE76
:101110008DBFCA30D105D9F6DF91CF911F910F91C4
:10112000FF90EF90DF90CF9008950E94E804ECE0EC
:10113000F3E0A6E1B3E011921D9283E0E631F807F7
:10114000D1F78AE00E94A6080C94DD050895FF926D
:101150000F931F93CF93DF93F82E092F162FD72FBE
:10116000C42F222349F081E080934F020E941A1974
:1011700090934E0280934D0280914F028823A1F0FC
:1011800080914D0290914E020E942619069760F0C0
:10119000EF2DF02FA12FBD2FCE0FDF2FD11DEC177C
:1011A000FD0741F410924F02DF91CF911F910F91F3
:1011B000FF90089581918D93F2CF8091500281111B
:1011C00011C08091D80080618093D8008AE18A950F
:1011D000F1F700C09091D900892F817090FF82E0D3
:1011E0008093500281E090915002913009F080E0AC
:1011F00008950C94DD080E94F908809301010E9473
:10120000DD0881110C940C0908950E94DD088111FC
:1012100002C00C941209089561E070E082E091E050
:101220000C94CB0B61E070E082E091E00C94D20B67
:10123000CF93DF93D82FC92F0E946C0C009779F4BD
:10124000ED2FFC2FDC01AE5ABD4F2C91219301965E
:1012500085309105B9F781E0DF91CF91089580E065
:10126000FBCF30E020E0FC014191CF01F901EE5AC3
:10127000FD4F40832F5F3F4F25303105A1F7089583
:10128000AF92BF92CF92DF92EF92FF920F931F9394
:10129000CF93DF937C015B01C42FD22FFC018281AD
:1012A0008823F9F0409359020E941A19909358022A
:1012B0008093570280E28C0F883008F061C0C770BD
:1012C00081E001C0880FCA95EAF7DF91CF911F91A5
:1012D0000F91FF90EF90DF90CF90BF90AF900C9464
:1012E000590F10915902141340C0809157029091E8
:1012F00058020E9426196C01B701C5010E943E14D4
:10130000C816D90690F5C0E2CD0F1D17B9F080E2DE
:10131000810F883040F4177081E001C0880F1A9562
:10132000EAF70E94600FC83048F481E09D2F977063
:1013300001C0880F9A95EAF70E94590F802F0E94EA
:10134000460FC830E8F4D77081E001C0880FDA9505
:10135000EAF7DF91CF911F910F91FF90EF90DF900F
:10136000CF90BF90AF900C94600F80E28C0F8830CC
:1013700038F4C77081E001C0880FCA95EAF7E9CF59
:10138000DF91CF911F910F91FF90EF90DF90CF9061
:10139000BF90AF9008950F939C01CB01243F4CE583
:1013A000340759F1A8F4293DFCE53F0701F12A3D36
:1013B0004CE53407D1F1283D3C4591F406E221EE9D
:1013C00041EE68ED7CE50E94400980E00F910895B0
:1013D000263FFCE53F07E9F0B0F0273F3C45F9F038
:1013E000FC018281882339F110925902EFCF07E284
:1013F00025EE45EE69ED7CE5E6CF06E221EE40EE16
:1014000064EF7CE5E0CF07E225EE44EE65EF7CE596
:10141000DACF06E221EE42EE66EF7CE5D4CF07E2BA
:1014200025EE46EE67EF7CE5CECF08E221E045EE03
:101430006AED7CE5C8CF81E0C9CFCF93DF93EC01A3
:10144000FB018281882309F419C1C230FCE5DF0762
:10145000C0F1C6319CE5D90730F09E012B5F3C45B9
:101460002930310570F50E94AB17909325038093C6
:101470002403C031ECE5DE0709F4CFC008F05BC0FF
:10148000C8308CE5D80709F4B6C088F5C430ECE55F
:10149000DE0709F4A8C0C0F4C2308CE5D80709F40F
:1014A0009CC0809124038260C330DC4509F498C05D
:1014B00080912403909125030E94B9170E94C811BE
:1014C00080E0DF91CF910895809124038061C63040
:1014D000ECE5DE0709F484C0809124038860C730FE
:1014E000DC4508F47DC080912403806279C0CC3053
:1014F0008CE5D80709F489C070F4809124038C60CE
:10150000CA30ECE5DE0709F46BC008F478C08091BE
:1015100024038E7F65C0CE308CE5D80709F479C0EE
:10152000809124038B7FCF30DC4508F459C0809133
:1015300024038F7E55C0CC3FECE5DE0709F457C08D
:1015400030F5C3318CE5D80709F46FC078F4C131A8
:10155000ECE5DE0709F465C0C231DC4509F0A8CF2F
:101560000E94C811809124038F773AC0C5318CE561
:10157000D80709F462C008F476C080912503816021
:10158000CB3FDC4509F094CF8093250391CFC11563
:10159000FDE5DF0709F44DC088F4809125038D7FB8
:1015A000CE3F9CE5D90781F3809125038E7FCF3F05
:1015B000DC4550F3809125038360E6CFC230FDE522
:1015C000DF0709F459C008F444C080E0C330DD45AA
:1015D00009F06ECF0E943E186BCF8091240381608A
:1015E0008093240365CF809124038460F9CF809198
:1015F00025038260C9CF809124038064F1CF0E94CB
:10160000C811809124038068EBCF809124038D7FE3
:10161000E7CF80912403877FE3CF809124038F7DE0
:10162000DFCF809124038F7BDBCF80912403837FE6
:10163000D7CF809125038C7FA7CF8091240382FB95
:10164000992790F921E0922790FB82F990FB83F98A
:10165000C7CF80912503982F909591708E7F892B0D
:1016600090FB81F991CF0E94C81190912403892F9A
:1016700097FB87F98058B4CF81E0ACCF81E021CFD0
:10168000CF93DF93EB0186319C4511F50E94D31671
:101690009A81992399F08A7A91E009F490E09093E5
:1016A0005A02811109C089E20E94AE160E941217E7
:1016B00080E0DF91CF91089585E3F6CF80915A02C3
:1016C000811104C089E20E94B516F0CF85E3FBCFFB
:1016D00081E0EFCF8EE14A9B02C08150E1F74A9B47
:1016E000FECF08955A9880E28A95F1F75A9A0895A4
:1016F000FC013BE03A95F1F798E020E080E031E032
:1017000040E14A95F1F7880F4A9B02C08160232788
:1017100042E04A95F1F7000040E14A95F1F7915017
:1017200079F790E19A95F1F799B132E03A95F1F7AE
:10173000000040E14A95F1F792FB992790F9922732
:101740002081920F90830895EF92FF920F931F9341
:10175000CF93DF930F92CDB7DEB719828C017C0156
:10176000E60EF11C0E151F0561F481E099819111BF
:1017700080E00F90DF91CF911F910F91FF90EF903C
:1017800008950E946A0BCE0101960E94780BF80121
:1017900081938F01E7CF90935C0280935B02529A12
:1017A0005A9A089590935C0280935B0252985A9AD9
:1017B000EA9AE9E6F0E080818F7C808308956150A9
:1017C000770B91E001C0990F6A95EAF720E031E0CC
:1017D000911108C0222391F05A9A80E28A95F1F77C
:1017E0005A980895492F482339F05A9A232740E2FE
:1017F0004A95F1F79695ECCF5A98F9CF5A98EDCFD4
:10180000FF920F931F93CF93DF93EC018C01060F90
:10181000111DC017D10731F4DF91CF911F910F91A6
:10182000FF900895F9900E94720B68E08F2D0E943E
:10183000DF0BEFCF1F920F920FB60F9211242F9351
:101840003F934F935F936F937F938F939F93AF9348
:10185000BF93CF93DF93EF93FF935A98529AC0911F
:101860005B02D0915C026D81662321F08E819F81A5
:101870000E94000C0E94720B80E18A95F1F75A9841
:1018800052985A9A80E18A95F1F76A81662309F1A4
:101890008B819C810E94A40BE881F981882311F03F
:1018A00088E001C082E080830E946A0BFF91EF9183
:1018B000DF91CF91BF91AF919F918F917F916F9168
:1018C0005F914F913F912F910F900FBE0F901F90FE
:1018D0001895E881F981E4CFCF93DF93C0915B0243
:1018E000D0915C02F894529A5A9885E08A95F1F763
:1018F000000052985A9A80E28A95F1F74A9B0CC0F0
:10190000529A5A9AE881F98181E08083789481E043
:1019100090E0DF91CF9108956D81662381F08E81F3
:101920009F810E94A40B81110AC0529A5A9AE881A1
:10193000F98182E08083789482E090E0EACF0E948F
:101940006A0B80E28A95F1F75A98529A80E18A955B
:10195000F1F76A81662321F08B819C810E94000C43
:101960000E94720BE881F9811082789490E080E007
:10197000D0CF90936202809361020895E09161025A
:10198000F0916202309721F00190F081E02D0994EE
:1019900080E00895EF92FF920F931F93CF93DF9310
:1019A0008C01E0916102F09162023097C1F10280F6
:1019B000F381E02D09958091EE0282FF30C080FF17
:1019C00004C08BE592E00E949E02D0E0C0E085E575
:1019D000E82E82E0F82E8091EE0280FF0EC0F80122
:1019E000EC0FFD1F80811F928F93FF92EF920E9458
:1019F00037030F900F900F900F902196C830D105AC
:101A000051F78091EE0280FF0AC083E592E0DF91FA
:101A1000CF911F910F91FF90EF900C949E02DF9158
:101A2000CF911F910F91FF90EF900895E091610287
:101A3000F0916202309739F022E0DC012C930480AF
:101A4000F581E02D0994089520915F0230916002A4
:101A50002817390771F09093600280935F02E0913C
:101A60006102F0916202309721F00680F781E02D4B
:101A70000994089520915D0230915E02281739077C
:101A800071F090935E0280935D02E0916102F091AB
:101A90006202309721F00084F185E02D09940895C9
:101AA00085B7806885BF85B7806885BF089508952C
:101AB000089508950E94500D0E94580D0C948905B8
:101AC0000C94DD08089508950E9411190E9495084C
:101AD0000E9480190C948505CF93C82F8091EE0247
:101AE00082FF1EC080FF1CC084E792E00E949E021D
:101AF0008091EE0280FF14C01F92CF938FE692E098
:101B00009F938F930E9437038091EE020F900F9066
:101B10000F900F9080FF04C08DE692E00E949E021D
:101B20008C2FCF910C945206BF92CF92DF92EF92FE
:101B3000FF920F931F93CF93DF93CDB7DEB72A9712
:101B40000FB6F894DEBF0FBECDBF0E94620D0E949B
:101B5000630D0E946C050E94600D882309F45EC02D
:101B600084E6C82E82E0D82E10E000E0B02E802F50
:101B70000E944908E82EF601F1906F01F81609F469
:101B800047C08091EE0281FD0E944F089F2D9E2547
:101B900080E0FF24F394292F2F21B1F18E83BF829F
:101BA000EF2081E009F480E088870E941A198160A3
:101BB000782F9A8789874E815F8168858A850E9400
:101BC0002F0EF801EC59FD4F8081F826F0820E941B
:101BD000AD1B0E94BE0C90916302891781F10E9497
:101BE000BE0C809363022A960FB6F894DEBF0FBE38
:101BF000CDBFDF91CF911F910F91FF90EF90DF90BC
:101C0000CF90BF900C946C0D8F5FFF0C883019F64D
:101C10000F5F1F4F0A30110509F0A8CF8FEF89839E
:101C20008A831B820E941A198160782F9D838C837E
:101C300049815A816B818D810E942F0EC8CF2A96CF
:101C40000FB6F894DEBF0FBECDBFDF91CF911F91CD
:101C50000F91FF90EF90DF90CF90BF900895CF93BA
:101C6000DF93CDB7DEB72B970FB6F894DEBF0FBE6C
:101C7000CDBF4F83588769877A878B871E821D82E5
:101C800085E0FE013796DE01119601900D928A954E
:101C9000E1F749815A816B817C818D819E812B96F0
:101CA0000FB6F894DEBF0FBECDBFDF91CF910C947D
:101CB0004114FC01808191810C948016CF93C82F30
:101CC000882309F48BC08238C1F40E94BE0C81FDC8
:101CD00085C089E30E94AE160E9412172FEF81EE95
:101CE00094E0215080409040E1F700C0000089E37B
:101CF0000E94B516CF910C9412178338A1F40E945C
:101D0000BE0C80FD6BC083E50E94AE160E941217C8
:101D10002FEF81EE94E0215080409040E1F700C029
:101D2000000083E5E5CF8438A1F40E94BE0C82FD5B
:101D300055C087E40E94AE160E9412172FEF81EE65
:101D400094E0215080409040E1F700C0000087E41B
:101D5000CFCF8CEF8C0F813A90F46C2F80910A01D9
:101D600090910B010E945518882329F08C2F0E9416
:101D7000B5160E9412178C2F0E94AE16BBCF80E2C0
:101D80008C0F883048F4C77081E001C0880FCA9575
:101D9000EAF70E94D616AECFEBE5EC0FE33040F445
:101DA000F0E0EE56FE4F808190E0CF910C94240D30
:101DB000E8E5EC0FE73150F4F0E0EE0FFF1FEC59CF
:101DC000FE4F80819181CF910C943A0DC03F30F04D
:101DD0008C2F0E94251ACF910C94101BCF9108953F
:101DE000882309F452C0823871F40E94BE0C81FF2E
:101DF0004CC089E30E94AE160E94121789E30E942C
:101E0000B5160C941217833859F40E94BE0C80FF4B
:101E10003CC083E50E94AE160E94121783E5EFCF07
:101E2000843859F40E94BE0C82FF2FC087E40E94C0
:101E3000AE160E94121787E4E2CF9CEF980F913AFA
:101E4000F0F290E2980F983050F4877091E001C062
:101E5000990F8A95EAF7892F0E94DC16D2CF9BE56D
:101E6000980F933020F490E080E00C94240D98E5D6
:101E7000980F973120F490E080E00C943A0D803F69
:101E800020F00E948D1A0C94101B0895CF93C82F38
:101E90000E945E0EC93349F42FEF87EE93E0215084
:101EA00080409040E1F700C000008C2FCF910C944F
:101EB000F00E882321F00E94D6160C941217089574
:101EC000882321F00E94DC160C9412170895BF920B
:101ED000CF92DF92EF92FF920F931F93CF93DF93F6
:101EE0006C01D62FC72FFC01058102950F7012815E
:101EF00011110E94F3160E94CC16E82E882391F04F
:101F00001123E9F08C2F807F803421F080E28D0F47
:101F10008830A8F082E00E945D170E94CC1691E004
:101F2000E82EE926BC2EB2949FE0B922FBE0FB1517
:101F3000A8F1EB2DF0E0E155FB4D0C945124E12C80
:101F4000F1CF0C2F0F70C07F11F00295007F11238D
:101F5000A9F0002359F080E28D0F883010F0D111E4
:101F600009C0802F0E94D6160E9412178D2F0E9442
:101F70005E0E14C0802F0E94E616F6CF8D2F0E94B1
:101F8000F00E002359F080E28D0F883010F0D1114F
:101F90002CC0802F0E94DC160E9412172B2D285077
:101FA000330B2430310520F40E94BE0C0E945206EF
:101FB000EE2009F48EC10E94C81680FD8AC1F60188
:101FC00012820E94C2160E944D15C6010E948A11FB
:101FD0000E94C216DF91CF911F910F91FF90EF9059
:101FE000DF90CF90BF900C946E15802F0E94EC165E
:101FF000D3CF2C2F2F70F22EC07FC03219F0F29465
:1020000080EFF822DD2369F0D13049F1112391F1FD
:10201000002351F1F601858180FFA8CF8F70858361
:1020200023C0112381F0011106C00E94F9168F29E7
:102030000E94590FB3CF0130C1F70E94F9168F29C2
:102040000E94FF16ABCF011106C00E9408178F2D0A
:102050000E94600FA3CF013009F4A0CFF6CF112367
:1020600029F0063008F09ACF8F2DE2CF053008F026
:1020700095CFEDCF002359F3D93349F4FFEF27EE85
:1020800033E0F15020403040E1F700C000008D2FD8
:102090000E94F00E83CF8C2F86958695837069F011
:1020A000813009F07BCF8D2F9C2F9370111102C0CE
:1020B00090E080E00E943A0D71CF8D2F9C2F93709D
:1020C000111102C090E080E00E94240D67CF8D2F97
:1020D000112329F00E94251A0E94101B5FCF0E9435
:1020E0008D1AFACF8C2F837009F041C0111156CF91
:1020F0004D2F429546954770440F440F0D2F0F709A
:1021000010E030E020E0042E04C0000F111F221F59
:10211000331F0A94D2F760E070E0CB01D4FF0FC008
:102120006FE070E080E090E004C0660F771F881FCA
:10213000991F4A95D2F76095709580959095C695B0
:10214000C695C370602B712B822B932BC23049F044
:1021500058F4C13019F00E94FF1420CF0E94ED14F2
:102160001DCF0E9411151ACF0E94EB1417CF869530
:10217000112311F08C2F8170882309F40FCF4D2F7C
:10218000429546954770440F440F0D2F0F7010E095
:1021900030E020E0042E04C0000F111F221F331F67
:1021A0000A94D2F760E070E0CB01D4FF0FC06FE07B
:1021B00070E080E090E004C0660F771F881F991FD1
:1021C0004A95D2F76095709580959095C695C6957D
:1021D000C370602B712B822B932BC23049F058F4C3
:1021E000C13019F00E94C415D9CE0E94B215D6CEC6
:1021F0000E94D615D3CE0E942715D0CECF701123C2
:1022000029F08C2F0E944D158D2F12CF8D2F0E94FB
:10221000600F8C2F0E946E15C1CED23F89F160F401
:10222000D03FC9F0D13F29F1112309F442C0011177
:102230009DCE8C2F8F7121C0D33F39F1D43FA1F7B0
:10224000112369F1CF718C2F0E944D1563E08C2F03
:102250000E944817A3CE112341F0053008F09ECE0E
:102260008C2F8F710E94911599CE063008F096CE72
:10227000F7CF8C2F8F71112369F20E944D158ECEEE
:102280008C2F8F711123C9F3C5CF112329F08C2F07
:102290008F710E94381582CE0E9433157FCE81E067
:1022A0000E945D17023008F479CE82E00E945D172B
:1022B00075CE002359F0D93309F0E9CE8FEF97EEB0
:1022C000E3E081509040E040E1F7DFCE8C2F8F714A
:1022D000A1CFDF91CF911F910F91FF90EF90DF90F1
:1022E000CF90BF9008950F931F93CF93DF93EC018E
:1022F000688179818A810E948A168C010E94E81582
:102300000E94EA14B801CE01DF91CF911F910F9185
:102310000C94670FCF93DF93EC018B819C81892B09
:1023200029F08881998189238F3F59F4DF91CF91DA
:102330000895CE010E947311CE01DF91CF910C94CC
:10234000D205CE010E94F9058111F3CF0E94CC166F
:10235000882361F38A81882349F382E0DF91CF915A
:102360000C945D170E94F3160E94F6160E94121735
:102370000E94B91C0E94101B90E080E00E94240D76
:1023800090E080E00C943A0D0E94BC160C94B211BF
:102390000E94E3160C94C411E92FE295EF70E2500D
:1023A000EE3070F4F0E0E554FB4D0C945124803F86
:1023B00019F020F4883E20F481E00895843FE1F391
:1023C00080E00895883EC0F3813FD1F7F5CF93FBBD
:1023D000882780F908950E9480160C94CC11CF9321
:1023E000DF9300D000D00F92CDB7DEB70F900F90E3
:1023F0000F900F900F90DF91CF910895CF93DF93BF
:1024000000D000D000D0CDB7DEB726960FB6F89436
:10241000DEBF0FBECDBFDF91CF9108951F93CF9345
:10242000DF93C0916F0216E0809170028C1304C09C
:10243000DF91CF911F910895D0E01C9FF0011D9F67
:10244000F00D1124EF58FD4F40815181628173815D
:10245000848195810E94FE112196C770E5CF40913D
:10246000A1025091A2026091A3027091A4028091F6
:10247000A5029091A6020C94FE111F93CF93DF93B7
:102480008091A602807FA9F48091A302882389F01D
:1024900080916F02C09170026091A1027091A202BE
:1024A000A091A402B091A502D62FD72316E0C8139D
:1024B00004C0DF91CF911F91089590E0109711F023
:1024C000DF3F19F401968770F2CF189F9001199F92
:1024D000300D1124F901EF58FD4F41814713F2CF20
:1024E00040814613EFCF42814111ECCF43815481AB
:1024F0004A1B5B0B483C510528F78091A6028F7060
:1025000080618093A602F901EA58FD4F80818F70A7
:102510008061808381EA92E00E948A11DF91CF91ED
:102520001F910C940E12AF92BF92CF92DF92EF9256
:10253000FF920F931F93CF93DF93CDB7DEB76197D1
:102540000FB6F894DEBF0FBECDBF8C0185E0F80159
:10255000DE011D9601900D928A95E1F7F801408108
:102560005181E28081EAC82E82E0D82E6091A402D7
:102570007091A5026115710509F461C19091A102E4
:102580002091A202892F82238F3F09F458C1A38092
:10259000B480F090A302F501E61BF70BFF2009F4CD
:1025A000FCC08091A602382F307FE83CF10508F08E
:1025B000B2C0311179C0FE2C251323C0941321C061
:1025C000E1101FC08F7080618093A6020E942F12BD
:1025D000C6010E948A118091A602F80185838F2D81
:1025E00061960FB6F894DEBF0FBECDBFDF91CF91DD
:1025F0001F910F91FF90EF90DF90CF90BF90AF9021
:102600000895AB2829F0842F85238F3F09F033C12B
:1026100080E0F82FF170DF2E80FF3CC080916F02C8
:102620002091700236E0821315C04D875E878D853C
:102630009E850E948016292F22952F702230F0F05F
:10264000243018F59F70F1F0F8019581907FD1F456
:10265000D12C1EC090E0389FF001399FF00D11245D
:10266000EF58FD4F6181651306C06081641303C09C
:1026700062816E110FC001968770D5CF9F7011F0E7
:10268000882331F3805E883018F3C8010E948A11D4
:10269000FD2CA5CFEE2009F4A2CF8091A602816087
:1026A0008093A602F12C9BCF251306C0941304C07F
:1026B000F801EE2009F48DC04D875E878D859E85DB
:1026C0000E94EB11882319F1EE2009F18091A602F6
:1026D000803270F02091A1023091A20238872F83BE
:1026E0001986BB86AA868C87CE0107960E948A111E
:1026F00086E0F801A1EAB2E001900D928A95E1F737
:102700000E943D120E942F12FF24F39468CFC8014B
:102710000E948A11F9CF311113C07A2DB98AA88A83
:102720006E2D89890E94EF1181EA92E00E948A1140
:1027300086E0F60111928A95E9F70E942F12B2CF36
:1027400025130FC094130DC0E1100BC0F801858351
:10275000C8010E948A1186E0F60111928A95E9F774
:102760003ECF4D875E878D859E850E94EB11882325
:1027700071F2EE2061F28091A602803208F4B8CFA7
:102780002091A1023091A2023A8329831B82BD824B
:10279000AC828E83CE010196A9CFE83CF10508F00A
:1027A00041C0FE2CEE2009F4B2CF25132AC09413A9
:1027B00028C08091A60280FD1BC0982F907FC1F099
:1027C000F8018583903F31F0982F907F905F8F7054
:1027D000892B8583C8010E948A1186E0F801A1EA4D
:1027E000B2E001900D928A95E1F70E942F12F7CE88
:1027F00086E0F801A1EAB2E001900D928A95E1F736
:10280000EECE4D875E878D859E850E94EB118111EE
:102810006FCF8091A60281608093A602C8010E94BA
:102820008A11DDCE7A2DB98AA88A6E2D89890E94F7
:10283000EF1186E0F60111928A95E9F7D6CFEE20E6
:1028400009F465CF4D875E878D859E850E94EB11CB
:10285000F82E882309F45BCF86E0F801A1EAB2E004
:1028600001900D928A95E1F781EA92E00E94590E5B
:102870000E943D12BACF81E08E25CBCE88EC90E04D
:1028800008951F93CF93DF93CDB7DEB72C970FB684
:10289000F894DEBF0FBECDBF4F83588769877A8714
:1028A0008B879C87CE0107960E949312882369F03C
:1028B0008A859B85892B39F04F815885842F852304
:1028C0008F3F09F071C016E05FC086E0FE013796C9
:1028D000DE01119601900D928A95E1F78A859B851C
:1028E000892B89F38F81988589238F3F61F320910C
:1028F000700230E0C90101968770992740916F02FC
:102900004817190671F40E94C811109270021092B3
:102910006F0286E0E1EAF2E0DF011D928A95E9F7B5
:10292000D2CF96E0929FD001939FB00D1124AF5863
:10293000BD4FFE01319601900D929A95E1F780937B
:1029400070020E940E12BFCF819FC00111248F58C8
:102950009D4F0E9493128823E9F0E0916F021E9F21
:10296000F0011124EF58FD4F408151816281738144
:10297000848195810E94FE1180916F0290E0019602
:102980008770992780936F0280916F0290917002F7
:102990008913DACF2C960FB6F894DEBF0FBECDBFE9
:1029A000DF91CF911F91089569857A858B859C85EC
:1029B0000E94FE1188CF08950C94DB140E94DC1451
:1029C0006093DD027093DE028093DF029093E00259
:1029D0000C94B21108950C94DE140F931F93009180
:1029E000DD021091DE022091DF023091E002602BC7
:1029F000712B822B932B1F910F910C94DE140F934C
:102A00001F930091DD021091DE022091DF023091D0
:102A1000E00260237123822393231F910F910C9472
:102A2000DE140F931F930091DD021091DE022091BE
:102A3000DF023091E00260277127822793271F91E0
:102A40000F910C94DE140C94DB140C9423150E944B
:102A500025156093D9027093DA028093DB0290937C
:102A6000DC020C94B21160E070E0CB010C942715ED
:102A70000F931F9341E050E060E070E08A019B01FA
:102A800004C0000F111F221F331F8A95D2F7C901FE
:102A9000B8011F910F910C9427150F931F9341E0DC
:102AA00050E060E070E004C0440F551F661F771FC0
:102AB0008A95D2F78091D9029091DA02A091DB0237
:102AC000B091DC028A019B01082B192B2A2B3B2B8E
:102AD000C901B8011F910F910C9427150F931F93F3
:102AE00041E050E060E070E004C0440F551F661FF5
:102AF000771F8A95D2F7CB01BA01609570958095C2
:102B000090950091D9021091DA022091DB02309168
:102B1000DC0260237123822393231F910F910C9475
:102B200027150F931F9341E050E060E070E004C070
:102B3000440F551F661F771F8A95D2F78091D902DF
:102B40009091DA02A091DB02B091DC028A019B0134
:102B5000082719272A273B27C901B8011F910F9180
:102B60000C9427150F931F930091D9021091DA024C
:102B70002091DB023091DC02602B712B822B932B96
:102B80001F910F910C9427150F931F930091D90259
:102B90001091DA022091DB023091DC026023712374
:102BA000822393231F910F910C9427150F931F934A
:102BB0000091D9021091DA022091DB023091DC02FF
:102BC00060277127822793271F910F910C94271557
:102BD0000895990F990F990F890F982F977041E0D9
:102BE00001C0440F9A95EAF786958695869595E0FB
:102BF000899FF0011124E955FD4F30E020E070E09D
:102C00005191DF011197CB01022E02C09695879555
:102C10000A94E2F7817081958527842385278C9318
:102C20002F5F3F4F2530310559F70895990F990FC0
:102C3000990F890F982F977086958695869525E030
:102C4000829FF0011124E955FD4F50E040E080E003
:102C5000219130E0092E02C0369527950A94E2F7BB
:102C600021703327042E01C0220F0A94EAF7822B29
:102C70004F5F5F4F4530510559F70895BF92CF928E
:102C8000DF92EF92FF920F931F93CF93DF938C010C
:102C9000C090D902D090DA02E090DB02F090DC0222
:102CA0008091DD029091DE02A091DF02B091E002FE
:102CB000C82AD92AEA2AFB2ACFE1D0E0BC2ED701C4
:102CC000C6010C2E04C0B695A795979587950A94D2
:102CD000D2F780FD0EC0219788F7B12C8B2DDF91A4
:102CE000CF911F910F91FF90EF90DF90CF90BF9009
:102CF0000895B8018C2F0E946F06019761F3EECF03
:102D0000CF93DF93EC010E943E16BE01DF91CF917D
:102D10000C946F061F93CF93DF93EB0190916E029B
:102D2000992331F0CB01DF91CF911F910C94801644
:102D3000882379F0CB010E943E16182F682FCE0110
:102D40000E94E915BE01812FDF91CF911F910C9454
:102D50006F06CB010E941616182FF4CF682F8091B2
:102D60000A0190910B010C948B18682F80910A0135
:102D700090910B010C948D1880910A0190910B0198
:102D80000C948F188091E10285958595859508951D
:102D90008091E102877008959091E102977081E03F
:102DA00009F480E008958091ED0208959091ED027C
:102DB000892B8093ED02089580959091ED029823E0
:102DC0009093ED0208951092ED0208959091EC0217
:102DD000892B8093EC02089580959091EC029823C2
:102DE0009093EC0208951092EC0208951092EB0279
:102DF00008958091E202089508950C94FC16909134
:102E0000E202981721F08093E2020C94FD160895D7
:102E10008091E202882329F01092E20280E00C9473
:102E2000FD160895E0910A01F0910B018091ED02E9
:102E30008083E0910A01F0910B0180819091EC0276
:102E4000892B8083E0910A01F0910B0180819091A0
:102E5000EB02892B80839091E202992381F0E0912B
:102E60000A01F0910B018081892B808380910A01F6
:102E700090910B010E94431881110E9408178091C4
:102E80000A0190910B010C94CA0C08950C944517FB
:102E900098E0899F90011124622B6093E1020E94C7
:102EA0004D158091E1028595859585950C94461781
:102EB0001092E10280E00C9446179091E102809517
:102EC00089238093E102282F277071F4282F082E80
:102ED000000C330B9217130639F08595859585956F
:102EE0000E946E150C94581708959093A501809335
:102EF000A4010895829590E09C01220F331F220FB8
:102F0000331F2C7C95958795959587958373282BF2
:102F100030E0C901880F991F8A7A35952795257564
:102F2000822B08956FEF7FEF90E080E00C94972460
:102F300090E080E00E94732421E08C3E9E4F09F0D7
:102F400020E0822F089582E090E00C946B2483E0CF
:102F500090E00C946B24CF9384E090E00E946B246B
:102F6000C82F81E290E00E946B24982F8C2FCF9184
:102F70000895CF93C92F682F84E090E00E947924B0
:102F80006C2F81E290E0CF910C947924AB01BC01CD
:102F90008FE090E00C948B24AB01BC0183E190E0C6
:102FA0000C948B2460E070E0CB010C94CC1760E0B3
:102FB00070E0CB010E94C6170C94D2176CEE7EEF26
:102FC00090E080E00E94972460E082E090E00E9420
:102FD000792460E083E090E00E9479241092DD0281
:102FE0001092DE021092DF021092E00260E084E0B4
:102FF00090E00E94792460E081E290E00E947924D0
:1030000060E085E090E00E94792460E086E090E056
:103010000E9479246FEF87E090E00E94792440E0DD
:1030200050E0BA0188E090E00E948B2460E08DE0DF
:1030300090E00E94792440E050E0BA0188E190E0FD
:103040000E948B2460E087E190E00E94792440E0B8
:1030500050E0BA018CE190E00E948B2460E080E2B5
:1030600090E00E94792440E050E0BA0188E190E0CD
:103070000E948B240C94D7170C94DE17682F8EE0D7
:1030800090E00C9479249C012E5F3F4FAC01485F87
:103090005F4F80E02417350709F40895F9019191F5
:1030A0009F019923B9F38F5FF5CF662349F0FC01A7
:1030B000329608962191261729F0E817F907D1F7DB
:1030C00080E0089581E008959C01FC0132969FEF15
:1030D00080E04191461751F09F3F19F4411101C022
:1030E000982F8F5F8630A9F79F3F09F40895290F25
:1030F000311D97FD3A95F90162830895FC013296DE
:1031000008962191261303C0DF0111971C92E8173E
:10311000F907B9F708950C9464180C947E18029678
:1031200026E0FC0111922A95E9F708950895089583
:103130000C9497180E94981880912A03843049F1C2
:103140001092EF0288E190E020E40FB6F894A89581
:10315000809360000FBE2093600080E00E945206C2
:103160000E94981883B7817F846083BF83B7816092
:1031700083BF7894889583B78E7F83BF0FB6F8940A
:10318000A895809160008861809360001092600033
:103190000FBE08950895CF930E9496180E946C0563
:1031A0000E94CA18C0E08C2F0E944908811105C0F6
:1031B000CF5FCA30C1F7CF91089581E0FCCF089569
:1031C0000C94DF180E94C8110E94BE0C0E94520687
:1031D0000C94E0181F921FB61F9211248F939F9397
:1031E000AF93BF938091EF02811113C080912003B0
:1031F00090912103A0912203B09123034196A11D38
:10320000B11D8093200390932103A0932203B093D8
:103210002303BF91AF919F918F911F901FBE1F906D
:10322000189582E084BD93E095BD9AEF97BD809399
:103230006E0008952FB7F894809120039091210398
:10324000A0912203B09123032FBF08959C014FB793
:10325000F8948091200390912103A0912203B091D2
:1032600023034FBF821B930B089578941F921FB6C0
:103270001F9211248F939F93AF93BF93809120034C
:1032800090912103A0912203B09123030196A11DE7
:10329000B11D8093200390932103A0932203B09348
:1032A0002303BF91AF919F918F911F901FBE1F90DD
:1032B000189587E797E7909301088093000888E1C5
:1032C0009AE00FB6F894A895809360000FBE909393
:1032D0006000FFCF0C9492170E946C058FE39CE96D
:1032E0000197F1F700C000000E946C0580E00E9489
:1032F000490880FF04C00E946A190C945919089566
:103300000E949817811102C00E943C180E94A317C6
:103310008093EE020E94AB179093250380932403C1
:103320000E94A717682F70E090E080E00E94EB14E5
:103330006091D9027091DA028091DB029091DC02F7
:103340000C9425158091F60280FF12C06091110146
:1033500085E0689FB001112475956795759567950F
:1033600060387105A8F561157105A1F1862F0895E2
:1033700081FF09C06091110185E0689FB0011124AF
:1033800075956795EDCF6091110182FD0AC080911E
:10339000F5028823D1F090911001609111018917F5
:1033A00028F085E0689FB0011124DACF869FB00134
:1033B000112485E0869F9001879F300D1124692F8D
:1033C00070E0C9010E943D24CBCF65E070E0CECF14
:1033D0008FE7089581E008958091F60280FF0CC088
:1033E00060910D0170E0759567957595679561150C
:1033F000710549F1862F089581FF06C060910D0186
:1034000070E075956795F3CF60910D0182FD0BC05B
:103410009091F4029923A1F060910C0180910D012B
:10342000961738F0682F70E06038710500F38FE769
:103430000895899FC001112470E00E943D24F4CFBB
:1034400061E070E0D7CF81E00895803F31F40E94C1
:10345000A21981958093FA020895813F19F40E9480
:10346000A219F8CF823F31F40E94A219819580936E
:10347000F9020895833F19F40E94A219F8CF893FF9
:1034800029F40E94EC198093FB0208958A3F21F4ED
:103490000E94EC198195F7CF8B3F31F40E94EC1913
:1034A00081958093FC0208958C3F19F40E94EC19D9
:1034B000F8CF843F31F48091F80281608093F80264
:1034C0000895853F21F48091F8028260F7CF863F0E
:1034D00021F48091F8028460F1CF873F21F480913C
:1034E000F8028860EBCF883F21F48091F802806178
:1034F000E5CF8D3F31F48091F60281608093F60232
:1035000008958E3F21F48091F6028260F7CF8F3FBD
:10351000B9F78091F6028460F1CF9091F902803F73
:1035200059F48091FA0287FF0DC01092FA029111AE
:103530000BC01092F50208C0813F81F48091FA021D
:1035400018169CF3992381F08091FB029091FC0264
:10355000892B09F064C01092F4020895823F49F467
:1035600097FFF0CF1092F9028091FA028111ECCF0F
:10357000E0CF833F19F41916ACF3E4CF2091FB029E
:10358000893F29F41216F4F61092FB02DBCF8A3F32
:1035900019F427FFD7CFF8CF2091FC028B3F29F4F5
:1035A00027FFD0CF1092FC02CDCF8C3F19F412161A
:1035B000CCF3C8CF843F31F48091F8028E7F8093A2
:1035C000F802C0CF853F21F48091F8028D7FF7CFBC
:1035D000863F21F48091F8028B7FF1CF873F21F461
:1035E0008091F802877FEBCF883F21F48091F80229
:1035F0008F7EE5CF8D3F31F48091F6028E7F8093F0
:10360000F602A0CF8E3F21F48091F6028D7FF7CF96
:103610008F3F09F097CF8091F6028B7FF0CF08950E
:103620008091EE0283FF7EC08EEA92E00E949E02AD
:103630008091F8021F928F9389EA92E09F938F9373
:103640000E94370387EA92E00E949E028091F9026D
:10365000282F082E000C330B3F938F9384EA92E0BF
:103660009F938F930E94370382EA92E00E949E020A
:103670008091FA02282F082E000C330B3F938F9372
:103680008FE992E09F938F930E9437038DE992E038
:103690000E949E028091FB02282F082E000C330B03
:1036A0003F938F938AE992E09F938F930E94370311
:1036B00088E992E00E949E028091FC02282F082E49
:1036C000000C330B3F938F9385E992E09F938F9388
:1036D0000E94370382E992E00E949E028091F502E7
:1036E0001F928F938FE892E09F938F930E943703EE
:1036F0008DE892E00E949E028091F6021F928F93C5
:103700008AE892E09F938F930E94370387E892E0C4
:103710000E949E028DB79EB74C960FB6F8949EBF3E
:103720000FBE8DBF0E941A199C019091F9028091E1
:10373000FA02982B21F03093F3022093F202909139
:10374000FB028091FC02982B21F03093F102209330
:10375000F00287EF92E00C94160DEF92FF920F9318
:103760001F93CF93DF9300D000D000D0CDB7DEB74A
:1037700086E0E7EFF2E0DE01119601900D928A9566
:10378000E1F7E090F902F090FA020091FB0210914B
:10379000FC021092F9021092FA021092FB021092AF
:1037A000FC028E2D8F2991F08091F2029091F3020C
:1037B0000E942619AC019091F502992309F43FC0AB
:1037C000809112018417150608F447C0802F812BC1
:1037D00091F08091F0029091F1020E942619AC01C3
:1037E0009091F402992309F477C080910E01841717
:1037F000150608F47FC08091F9029091FA02892B96
:103800009091FB02892B9091FC02892B11F00E9470
:10381000101B86E0FE013196A7EFB2E001900D92F9
:103820008A95E1F726960FB6F894DEBF0FBECDBF9E
:10383000DF91CF911F910F91FF90EF90089520910C
:1038400013018AE0289F900111242417350708F0FE
:10385000BDCF9F5F9093F50202C09F3FD1F7EE204E
:1038600059F00E94A2199FEF1E140CF491E0899F59
:10387000802D11248093F902FF2059F00E94A21993
:103880009FEF1F140CF491E0899F802D11248093E9
:10389000FA023091F902332309F498CF2091FA0209
:1038A000222309F493CF45EB3403C001112499235B
:1038B00059F09093F90245EB24039001112433232E
:1038C00039F03093FA0282CF81E08093F902F3CF8E
:1038D00081E08093FA027ACF20910F018AE0289F3D
:1038E000900111242417350708F085CF9F5F90932E
:1038F000F40202C09F3FD1F7002359F00E94EC1957
:103900009FEF10160CF491E0899F802D1124809375
:10391000FB02112359F00E94EC199FEF11160CF4D1
:1039200091E0899F802D11248093FC023091FB024D
:10393000332309F460CF2091FC02222309F45BCFEA
:1039400045EB3403C0011124992359F09093FB02F5
:1039500045EB240390011124332339F03093FC020A
:103960004ACF81E08093FB02F3CF81E08093FC0299
:1039700042CF86E0E7EFF2E0DF011D928A95E9F79A
:103980001092F5021092F4021092F60208958091BE
:10399000080308959FB7F8941092FF029FBF90917B
:1039A0002A03943009F048C02091E9002F7030912B
:1039B000EC00932F917030FD90E8922B23E0209340
:1039C000E9002091EB0020FF34C02091EE0027FF9A
:1039D00030C02091FD02222321F02091E80025FF34
:1039E00028C01092FD0226E03091E80035FF14C097
:1039F0008093F1008091E80085FD27C08091E80068
:103A000080FFFCCF8091E8008E778093E8009F7064
:103A10009093E90080E0089530912A03343049F40E
:103A20003091EB0035FD05C0215041F481E08093D9
:103A3000FD029F709093E9008FEF0895EFE9FFE09A
:103A40003197F1F700C00000CFCF8FB7F89421E095
:103A50002093FF028FBFDBCFCF93DF9300D00F9275
:103A6000CDB7DEB790912A03943019F589837B8313
:103A70006A8382E08093E9008FEF9091E8008150A3
:103A800095FD06C095ED9A95F1F700008111F5CFEF
:103A90008091E80085FF0DC050E040E063E070E0F9
:103AA000CE0101960E94A11F8091E8008E7780933D
:103AB000E8000F900F900F90DF91CF910895BC0117
:103AC00084E00C942C1DBC0183E00C942C1D9C0103
:103AD00082E08093E9009FEF8091E800915085FD9E
:103AE00006C085ED8A95F1F700009111F5CF809120
:103AF000E80085FF0CC050E040E066E070E0C901DE
:103B00000E94A11F8091E8008E778093E8000895BD
:103B1000CF93DF93EC0181E08093E9008FEF9091E8
:103B2000E800815095FD06C095ED9A95F1F70000EB
:103B30008111F5CF8091E80085FF14C050E040E08E
:103B400068E070E0CE010E94A11F8091E8008E77AE
:103B50008093E80088E0FE01A0E0B3E001900D92C0
:103B60008A95E1F7DF91CF91089586EF92E00E9468
:103B70009E0280912903811109C00E9431210E9477
:103B80008E218091E20084608093E200089582EFAC
:103B900092E00E949E021092290308958EEE92E018
:103BA0000C949E028AEE92E00C949E0286EE92E0C5
:103BB0000E949E020C94E2182091FE022F5F822F39
:103BC00062E30E943124992319F02093FE020895A4
:103BD0001092FE028091FF028823F1F080912A0367
:103BE0008430C1F49091E9009F702091EC00822F05
:103BF000817020FD80E8892B93E09093E9009091FB
:103C0000EB0090FF04C09091EE0097FD08C08F700C
:103C10008093E9001092FF0208951092F1009091B4
:103C2000E80095FDFACF9091E80090FFF0CF9091D9
:103C3000E8009E779093E800EACF42E061EC81E0F3
:103C40000E94AD2042E261EC82E00E94AD2042E29F
:103C500061EC83E00C94AD2080912C03833009F457
:103C60005FC030F48130C1F1823009F49BC0089507
:103C70008A3009F487C08B3009F46DC0893009F0AF
:103C80004EC080912B03813209F049C080912F03EF
:103C900090913003029708F042C08091E800877F3E
:103CA0008093E8008091E80082FF35C09091F30096
:103CB0008091F200029729F48091F1008B7F81308E
:103CC00021F48091F100809308038091E8008B77C4
:103CD0008093E8000C94E12080912B03813AF9F461
:103CE0008091E800877F8093E80080912F03909176
:103CF0003003892B61F468E080E093E070E00E947B
:103D0000F01F8091E8008B778093E800089560E0D1
:103D100090E080E0F3CF80912A038111C3CF089512
:103D200080912B03813AD9F780912F039091300332
:103D3000892BA9F78091E800877F8093E800809124
:103D4000E80080FFFCCF80911E018093F1008091FC
:103D5000E8008E77BDCF80912B03813201F78091EF
:103D60002F0390913003892BD1F68091E800877F53
:103D70008093E8000E94E12080912D0380931E0132
:103D80000C94C81180912B03813249F68091E80090
:103D9000877F8093E8000E94E12080912E0380932A
:103DA0000903089580912B03813A09F0B8CF8091DF
:103DB000E800877F8093E8008091E80080FFFCCFD7
:103DC00080910903C2CF84B7877F84BF0FB6F89470
:103DD000A8958091600088618093600010926000D7
:103DE0000FBE80E890E00FB6F89480936100909346
:103DF00061000FBE0E945A0D0E9431210E948E2147
:103E00008091E20084608093E2008AEC9CE10E9451
:103E1000751778940E9416240E94640D84E191E045
:103E20000E94B90C85ED92E00E949E0280912A03C7
:103E3000853039F00E94940D0E94620D0E94630D3E
:103E4000F5CF81ED92E00E949E020E949A18809127
:103E50002803882359F30E94CB18882339F30E9442
:103E60008B1FE4CF0C94341F292F332723303105C7
:103E700021F168F42130310509F443C022303105C5
:103E800009F444C090E080E030E020E026C0213218
:103E9000310551F122323105A9F76330710590F7F0
:103EA000FB01EE0FFF1FE856FE4F208131816B565C
:103EB0007E4FFB01808190E010C0992781309105F1
:103EC00081F0009729F00297E9F6EAEFF2E002C0EC
:103ED000EEE3F3E0849190E09F01FA0131832083C7
:103EE0000895ECE2F3E0F6CF6330710558F6660F03
:103EF000771FFB01E256FE4F2081318189E090E07F
:103F0000ECCF82E190E02DE933E0E7CF8BE590E064
:103F100022E433E0E2CF80E189BD82E189BD09B4CA
:103F200000FEFDCF8091D8008F7D8093D8008091D6
:103F3000E00082608093E0008091E00081FDFCCF92
:103F40000895AF92BF92CF92DF92FF920F931F938B
:103F5000CF93DF936C01EB018A010E940021F82EC0
:103F6000811123C00115110539F0F801808191817B
:103F7000C81BD90BC80ED91EB12CA12C2097A9F0B3
:103F80008091E80085FD22C08091E8008E778093C3
:103F9000E80001151105A1F0F80180819181A80EBA
:103FA000B91EB182A08285E0F82E8F2DDF91CF91CE
:103FB0001F910F91FF90DF90CF90BF90AF90089529
:103FC0000E9400218823D1F2F82EEFCFF6018191D3
:103FD0006F018093F1002197FFEFAF1ABF0ACECF98
:103FE000FC01809131039091320386179707A0F06E
:103FF0006115710529F49091E8009E779093E8008F
:1040000090E06115710551F4911108C08091E800AC
:1040100082FF34C080E00895BC01F2CF80912A0372
:104020008823C1F18530C1F18091E80083FD30C063
:104030008091E80082FDEACF8091E80080FFE1CF27
:104040008091F3002091F200382F6115710519F06D
:104050002830310558F091E02830310509F090E022
:104060002091E8002E772093E800CBCF81918093B8
:10407000F100615071092F5F3F4FE7CF80912A0314
:10408000882341F0853041F08091E80083FFBECF66
:1040900081E0089582E0089583E00895FC01809115
:1040A00031039091320386179707A0F061157105CF
:1040B00029F48091E8008E778093E80090E0611504
:1040C000710551F4911108C08091E80082FF35C05C
:1040D00080E00895BC01F2CF80912A038823C9F1C2
:1040E0008530C9F18091E80083FD31C08091E800FE
:1040F00082FDEACF8091E80080FFE1CF8091F3005C
:104100002091F200382F6115710519F02830310522
:1041100058F091E02830310509F090E08091E800F6
:104120008E778093E800CBCF84918093F100319615
:10413000615071092F5F3F4FE6CF80912A0388239A
:1041400041F0853041F08091E80083FFBDCF81E0F0
:10415000089582E0089583E00895982F973028F01D
:104160008F708093E90081E008959093E900242FF7
:10417000762F50E0981731F07091EC002091ED000F
:104180005091F00021FD02C09F5FE8CF3091EB001D
:104190003E7F3093EB003091ED003D7F3093ED009A
:1041A0003091EB0031603093EB007093EC00209382
:1041B000ED005093F0002091EE0027FDE5CF80E068
:1041C000089580912B0387FF13C08091E80082FF40
:1041D00006C08091E8008B778093E80004C080914E
:1041E0002A038111F2CF089580912A038823D9F3FD
:1041F0008091E80080FFF8CF8091E8008E77ECCFC7
:104200002091E4003091E50095E6A9012091EC00B1
:10421000822F817020FF06C08091E80080FF06C0D9
:1042200080E008952091E80022FD1AC080912A03C1
:10423000882389F0853089F08091EB0085FD0FC0DF
:104240002091E4003091E50042175307F9F29150B4
:10425000E1F684E0089582E0089583E0089581E026
:1042600008950E949F210E94A721E0EEF0E0808146
:1042700081608083E8EDF0E080818F77808319BCD6
:10428000A7EDB0E08C918E7F8C9380818F7E8083B0
:104290001092290308950F931F93CF93DF930E94E9
:1042A0009F210E94A721C8EDD0E088818F77888365
:1042B00088818068888388818F7D888319BC10926B
:1042C0002A0310922603109228031092270300EE6F
:1042D00010E0F80180818B7F8083888181608883F2
:1042E00042E060E080E00E94AD20E1EEF0E08081FD
:1042F0008E7F8083E2EEF0E0808181608083808128
:1043000088608083F80180818E7F808388818061CE
:104310008883DF91CF911F910F910895E8EDF0E030
:1043200080818F7E8083E7EDF0E0808181608083F3
:1043300084E082BF81E0809329030C944B21E8ED57
:10434000F0E080818E7F80831092E20008951092C9
:10435000DA001092E10008951F920F920FB60F92AB
:1043600011242F933F934F935F936F937F938F937A
:104370009F93AF93BF93EF93FF938091E10082FFF0
:104380000BC08091E20082FF07C08091E1008B7F2B
:104390008093E1000E94DC1D8091DA0080FF19C04B
:1043A0008091D80080FF15C08091DA008E7F8093C5
:1043B000DA008091D90080FF96C080E189BD82E15A
:1043C00089BD09B400FEFDCF81E080932A030E94DD
:1043D000B51D8091E10080FF19C08091E20080FF4F
:1043E00015C08091E2008E7F8093E2008091E20010
:1043F00080618093E2008091D80080628093D80031
:1044000019BC85E080932A030E94D21D8091E100AF
:1044100084FF2BC08091E20084FF27C080E189BD2A
:1044200082E189BD89B5982F917080FFFBCF809183
:10443000D8008F7D8093D8008091E1008F7E80939B
:10444000E1008091E2008F7E8093E2008091E200A3
:1044500081608093E20080912603882309F449C09B
:1044600084E080932A030E94D61D8091E10083FF9F
:1044700029C08091E20083FF25C08091E100877F01
:104480008093E10082E080932A03109226038091BA
:10449000E1008E7F8093E1008091E2008E7F809327
:1044A000E2008091E20080618093E20042E060E0FF
:1044B00080E00E94AD208091F00088608093F00041
:1044C0000E94CE1DFF91EF91BF91AF919F918F916F
:1044D0007F916F915F914F913F912F910F900FBE00
:1044E0000F901F90189519BC10922A030E94C71DA7
:1044F00070CF8091E30087FD93E090932A03B3CFC0
:104500001F920F920FB60F9211242F933F934F9348
:104510005F936F937F938F939F93AF93BF93CF934B
:10452000DF93EF93FF93D091E900DF708091EC006F
:10453000C82FC17080FDC0E81092E9008091F000A2
:10454000877F8093F00078940E94C4221092E90043
:104550008091F00088608093F000CD2BCF70C093E5
:10456000E900FF91EF91DF91CF91BF91AF919F91C2
:104570008F917F916F915F914F913F912F910F900C
:104580000FBE0F901F9018951F93CF93DF93CDB759
:10459000DEB7AA970FB6F894DEBF0FBECDBF8BE291
:1045A00093E02091F100FC012193CF01F3E08333EC
:1045B0009F07B9F70E942C1E8091E80083FF1EC15F
:1045C00080912B0390912C039A3008F017C1E92FAA
:1045D000F0E0E753FB4D0C945124803899F0823879
:1045E00009F00CC180912F038F70873008F006C14D
:1045F0008093E9008091EB0085FB882780F9109279
:10460000E90006C0809127039091280391118260F0
:104610009091E800977F9093E8008093F1001092CA
:10462000F1008091E8008E77E5C0882309F4D3C0BB
:10463000823009F0E3C080912D038111D6C08091B2
:104640002F038F702FEF280F263008F0D7C08093EC
:10465000E9002091EB0020FFC8C0933031F4809135
:10466000EB0080628093EB00C0C09091EB00906102
:104670009093EB0021E030E001C0220F8A95EAF729
:104680002093EA001092EA008091EB008860EACF64
:104690008111B4C010912D031F778091E3008078C1
:1046A000812B8093E3008091E800877F8093E8006E
:1046B0000E94E1208091E80080FFFCCF8091E30020
:1046C00080688093E30082E0111183E080932A03E5
:1046D00095C08058823008F091C080912D03909150
:1046E0002E038C3D23E09207A1F583E08A838AE2C2
:1046F00089834FB7F894DE01139620E03EE051E243
:10470000E32FF0E050935700E49120FF03C0E295BF
:10471000EF703F5FEF708E2F90E0EA30C0F0C796E9
:104720008D939D932F5F243159F74FBF8091E800FF
:10473000877F8093E8006AE270E0CE0101960E94D4
:10474000F01F8091E8008B778093E80057C0C096F7
:10475000E7CF60912F0370913003AE014F5F5F4F41
:104760000E94321FBC01892B09F448C09091E800D7
:10477000977F9093E80089819A810E944E20E1CF33
:104780008038E1F58091E800877F8093E800809190
:1047900026038093F10045CF811130C090912D0305
:1047A000923060F58091E800877F8093E8009093D5
:1047B00026030E94E12080912603882311F084E0E3
:1047C00005C08091E30087FDFACF81E080932A0342
:1047D0000E941D1E13C080912D03813079F481E069
:1047E000933009F080E0809328031092E9008091D3
:1047F000E800877F8093E8000E94E1208091E80034
:1048000083FF0AC08091E800877F8093E800809151
:10481000EB0080628093EB00AA960FB6F894DEBF9F
:104820000FBECDBFDF91CF911F910895CF9380919F
:104830002A038823A1F0C091E900CF709091EC0089
:10484000892F817090FD80E8C82B1092E90080913B
:10485000E80083FD0E94C422CF70C093E900CF918D
:104860000895991B79E004C0991F961708F0961BCC
:10487000881F7A95C9F78095089597FB072E16F43F
:10488000009407D077FD09D00E94572407FC05D07B
:104890003EF4909581959F4F0895709561957F4F57
:1048A0000895EE0FFF1F0590F491E02D0994AA1BC7
:1048B000BB1B51E107C0AA1FBB1FA617B70710F00B
:1048C000A61BB70B881F991F5A95A9F7809590953D
:1048D000BC01CD010895F999FECF92BD81BDF89A32
:1048E000992780B50895A8E1B0E042E050E00C942B
:1048F0009F24262FF999FECF92BD81BDF89A01978A
:1049000000B4021639F01FBA20BD0FB6F894FA9A17
:10491000F99A0FBE08950396272F0E947A240E94C9
:104920007924252F0E947A24242F0C947A2401962E
:10493000272F0E947A240C947924DC01CB01FC01FE
:10494000F999FECF06C0F2BDE1BDF89A319600B4E8
:104950000D9241505040B8F70895F894FFCFA10F41
:10496000A10FF90FF90F4B106710CE0FCE0F721079
:10497000FE100D110D11D711D711E011E011E21148
:10498000E011E011E011D711D711E711E011E011AA
:10499000E711ED221523FE231523FE234823692367
:0649A000FE23C023CC231E
:1049A60040015102005202055202E3022808641E29
:1049B600140A321EC71C881D671D631D5F1D01C8B2
:1049C600002C01F4F5F6020400060507030134C6BF
:1049D600976694E200E900EA00B500B600B700CD9C
:1049E600008301CC008A0192019401210223022452
:1049F600022502260227022A02B300B4006F0070C5
:104A060000818283E200E900EA00B500B600B70043
:104A1600CD008301CC008A01920194012102230278
:104A260024022502260227022A02B300B4006F00E0
:104A360070008182834081225204D103AF03540364
:044A46006D03860373
:00000001FF
