:100000000C9483030C94A0030C94A0030C94E7219C
:100010000C94A0030C94A0030C94A0030C94A003D4
:100020000C94A0030C94A0030C94E42A0C94B72B1A
:100030000C9440240C94A0030C94A0030C94A003F3
:100040000C94A0030C94A0030C94A0030C94A003A4
:100050000C94A0030C94F8240C94A0030C94A0031B
:100060000C94A0030C94A0030C94A0030C94A00384
:100070000C94A0030C94A0030C94A0030C94A00374
:100080000C94A0030C94A0030C94A0030C94A00364
:100090000C94A0030C94A0030C94A0030C94A00354
:1000A0000C94A0030C94A0030C94A0030A00253424
:1000B00064000A0029001E001F0020002100220009
:1000C000230000005300350014001A00080015003A
:1000D00017004C000000E2000400160007000900B1
:1000E0000A002B000151E0001D001B000600190052
:1000F00005008B004A004E004B004D002C0076009E
:10010000E100390024002500260027002D002E00E4
:100110008900000049001C0018000C0012001300A8
:100120002F003000000058000B000D000E000F00E3
:10013000330034002C001100100036003700380066
:10014000320087008800E500E3002A0050005200DA
:1001500051004F0001003A003B003C003D003E00D2
:100160003F0000000100000000000000000000004F
:10017000000001000000010000000000000000007D
:10018000000001000100010000000000000000006C
:100190000000010001000100010001000100010058
:1001A00001000100400041004200430044004500BE
:1001B000010000000100000000000000000000003D
:1001C000010001000000010000000000000001002B
:1001D0000100010001000000000001000100010019
:1001E0000100010001000100010001000100010007
:1001F00001000100010001000100010001000100F7
:1002000001000000010001000100010001000100E7
:1002100001000100000001000100010001000100D7
:1002200001000100010001000100010001000100C6
:1002300001000100010001000100010001000100B6
:1002400001000100010001000100010001000100A6
:100250000100000001000100010001000100010097
:100260000100010000000100010001000100010087
:100270000100010001000100010001000100010076
:100280000100010001000100010001000100010066
:100290000100010001000100010001000100010056
:1002A0000100000001000100010001000100010047
:1002B0000100010000000100010001000100010037
:1002C0000100010001000100010001000100010026
:1002D0000100010001000100010001000100010016
:1002E0000100010001000100010001000100010006
:1002F00001000000010001000100010001000100F7
:1003000001000100000001000100010001000100E6
:1003100001000100010001000100010001000100D5
:1003200001000100010001000100010001000100C5
:100330000100010044454255473A206469736162F7
:100340006C65642E0A0044454255473A20656E614B
:10035000626C65642E0A000A0025303258006C6514
:10036000645F7461736B3A20004F6E6573686F74DD
:100370003A206163746976653A2025640A000A00B0
:1003800025303862003A200025303258000A722F9A
:10039000632030313233343536370A0054617267A6
:1003A000657420636F6E6E65637465640D0A005436
:1003B000617267657420646973636F6E6E656374E0
:1003C00065642C207468726F74746C696E67206346
:1003D0006F6E6E656374696F6E20617474656D70A5
:1003E00074730D0A004661696C656420746F206542
:1003F0007865637574652025730A00290A002575E0
:10040000002F002575005D2800256400200025646C
:1004100000200025640020002564007C0025303287
:1004200058006D6F7573656B6579205B62746E7CC7
:10043000782079207620685D287265702F61636C62
:10044000293A205B0000000000000000002A2B2851
:10045000000000000000000000000000000000009C
:1004600029000000002C1E342021222434262725B8
:100470002E362D3738271E1F2021222324252633F0
:1004800033362E37381F0405060708090A0B0C0DF2
:100490000E0F101112131415161718191A1B1C1D04
:1004A0002F3130232D350405060708090A0B0C0DE2
:1004B0000E0F101112131415161718191A1B1C1DE4
:1004C0002F3130354C00000000000000000000001B
:1004D000000000000000000000000000000000001C
:1004E0000000000000000000007E0F00D4FFFFFFAE
:1004F000C7000000780A002530325820006B65796B
:10050000626F6172645F7265706F72743A20005B33
:10051000735D005B575D005B535D005B525D005B8C
:10052000445D005B435D003A036D00690063007247
:10053000006F00200054004C002000530070006C3D
:10054000006900740020004B006500790062006FB4
:10055000006100720064002000310038006D006D01
:10056000000000100373006100740072006F006DE2
:1005700000690000000403090409027B0004010073
:10058000A0FA090400000103010100092111010082
:10059000012240000705810308000109040100024F
:1005A0000300000009211101000122220007058239
:1005B00003200001070503032000010904020001D4
:1005C00003000000092111010001227B00070584BE
:1005D00003200001090403000203000000092111A7
:1005E00001000122220007058503200001070505FF
:1005F000032000011201000200000008EDFEEC7073
:100600000100010200010631FF0974A101097515FD
:100610000026FF009520750881020976150026FF47
:1006200000952075089102C00660FF0961A10109CB
:1006300062150026FF0095207508810209631500E8
:1006400026FF00952075089102C005010902A1014D
:1006500085020901A10005091901290815002501D4
:100660009508750181020501093009311581257F41
:1006700095027508810609381581257F9501750851
:100680008106050C0A38021581257F9501750881C0
:1006900006C0C005010980A101850319012AB70020
:1006A000150126B700950175108100C0050C0901E0
:1006B000A101850419012AA002150126A0029501B5
:1006C00075108100C005010906A101050719E0297F
:1006D000E7150025019508750181029501750881CE
:1006E000010507190029FF150026FF00950675086A
:1006F00081000508190129059505750191029501EB
:1007000075039101C00011241FBECFEFDAE0DEBFF8
:10071000CDBF11E0A0E0B1E0E2E3FDE502C005904D
:100720000D92A43DB107D9F723E0A4EDB1E001C0DB
:100730001D92AD37B207E1F70E9429180C94432EA1
:100740000C940000FF93EF93E091D401F091D50158
:10075000309709F00995EF91FF910895FC0185917B
:10076000803011F0EFDFFBCF0895FF27E0E230E2A9
:1007700047FF0CC0419597FF09C0EDE26095709569
:1007800080959095611D711D811D911D27FF02C0EF
:10079000219530E350E2AA27660F771F881F991F23
:1007A000AA1FA41710F0A41B63955A95A9F7AA30A5
:1007B00008F0A95FA05DAF93F39561157105810500
:1007C000910541F7ED3211F4EF93F395F21718F418
:1007D0003F93F395FBCF8F91B5DFFA95E1F708953D
:1007E000E991F9918591803021F0853219F0AADFE5
:1007F000F9CF089520E0E89455915532C1F3503374
:1008000011F4689455915A3348F4505390F3220FE1
:10081000022E220F220F200D250FF4CF0EF421956A
:1008200089919991533619F3533729F1533559F179
:10083000BC0188279927E8945C3621F48991999125
:1008400068945591543639F446EF7EF077FF0DC029
:100850008FEF9FEF0AC055374AE039F0583540E135
:1008600021F0523642E009F00895FF93EF937DDFC7
:10087000EF91FF91B7CFFF93EF93FC01819180300F
:10088000B9F360DFFBCFFF93EF9368DFF1CFDF9326
:10089000CF93CDB7DEB72596A3DFCF91DF91089533
:1008A000807C809300010895803F09F188F48439A9
:1008B00001F140F48533F9F08633F9F08433F9F02F
:1008C0008FE108958639E9F08739D1F782E20895FA
:1008D000853FC9F030F4813FC1F0843F89F784E05F
:1008E0000895863FA1F0873F59F787E0089580E09B
:1008F000089580E2089584E2089585E2089583E2F0
:10090000089581E2089585E0089581E0089586E0E4
:10091000089596E890937A00982F9072906890933B
:100920007B008F7190910001892B80937C008091D6
:100930007A00806480937A0080917A0086FDFCCFF3
:10094000809178002091790090917A009F77909320
:100950007A00922F08950E9454040E9489040895F9
:10096000CF93DF93EC0188819981AA81BB81809329
:10097000760290937702A0937802B09379022A9836
:10098000229A80E40E945004A4E4B1E049E451E0DA
:1009900061E070E08D91E82FE295EF70F0E021A129
:1009A0008F70EB0102C0CC0FDD1F8A95E2F7CE01FC
:1009B000922F982B91A392A18095892382A34A1705
:1009C0005B0741F7A9E3B1E04CE351E061E070E07F
:1009D0008D91E82FE295EF70EF5DF0E020818F7050
:1009E000EB0102C0CC0FDD1F8A95E2F7CE01822B0E
:1009F00080834A175B0761F722982A9880E090E08D
:100A0000DF91CF910895CF93DF93229AE62FF0E004
:100A1000E45CFE4F908190FF3FC08C9A91FF3EC0F6
:100A20008D9A92FF3DC08E9AA4E4B1E069E471E032
:100A300041E050E02D91E22FE295EF70EE5DF0E0A5
:100A400090812F70EA0102C0CC0FDD1F2A95E2F7DA
:100A50009E012095292320836A177B0759F7F89474
:100A600022982A98E82FF0E0EC5BFE4F8081E82F77
:100A7000E295EF70EE5DF0E090818F7001C0440F61
:100A80008A95EAF7892F842B808386E30E94AB0442
:100A90007894DF91CF9108958C98C0CF8D98C1CF75
:100AA0008E98C2CFFC019A018081482F50E0062E1B
:100AB00002C0559547950A94E2F740FF12C0409155
:100AC00076025091770224173507D0F421E030E008
:100AD00001C0220F6A95EAF720958223808381E086
:100AE000089540917802509179024217530740F4DB
:100AF00021E030E001C0220F6A95EAF7822BEECFA9
:100B000080E00895A0E0B0E0E8E8F5E00C94A82DBE
:100B10006C0186EDA82E81E0B82E10E000E0750192
:100B2000C0E0D0E0612F8C2F0E940305AC01F701DB
:100B300080835183612FC6018C0F9D1F0E94520537
:100B4000082B2196F0E1EF0EF11CC530D10551F7CD
:100B500082E0A80EB11C1F5F183009F7802FCDB7B7
:100B6000DEB7EAE00C94C42DA0E0B0E0EAEBF5E0DB
:100B70000C94A82D06ED11E08EEAC82E80E0D82E48
:100B80009CEAA92E90E0B92EE801E12CF12C888195
:100B9000998122969F938F93DF92CF920E94470470
:100BA0008FEFE81AF80A0F900F900F900F9088E0DF
:100BB000E816F10461F7BF92AF920E944704005F0C
:100BC0001F4F0F900F9082E006321807E9F6CDB75D
:100BD000DEB7EAE00C94C42D0895A4E0B0E0E3EFA2
:100BE000F5E00C94B02D0E94001680913101909197
:100BF0003201A0913301B091340189839A83AB8390
:100C0000BC83CE0101960E94B0048091030190E064
:100C1000811101C095E09093510385E0891B809379
:100C200050030E940A162496E2E00C94CC2DCF9338
:100C30000E948205C82F80917A0290917B029C01CC
:100C40002F5F3F4F8C32914039F030937B022093DD
:100C50007A028C2FCF91089510927B0210927A0223
:100C60000E94B40582EB90E00E94AE03F2CF509A4E
:100C7000589A08950E9437060E9498110895879AFD
:100C80008F9A0E949711089584E0089581E0089555
:100C900081E008950E944806089508950E944D0637
:100CA0000895A5E0B0E0E7E5F6E00C94AF2D4983A8
:100CB0005A833091810289819A81311119C066234A
:100CC00099F0222389F00E94A50C182F682F8981A2
:100CD0009A810E94820C69817A81812F0E949D1FD6
:100CE0002596E3E00C94CB2D0E94930C182FF3CFA4
:100CF0000E94A50C69817A81F1CFFC01262F4081E9
:100D000051816281738184810E945106089581E03E
:100D10000895CF93DF93D82FC92F60E00E947D06FE
:100D20006D2F7C2F0E944E06DF91CF910895E1E058
:100D3000F0E0DF0102C0AA0FBB1F6A95E2F7BD0118
:100D4000DF0102C0AA0FBB1F4A95E2F76A2B01C060
:100D5000EE0F2A95EAF7962F9823961302C08E2B52
:100D60000895E0958E230895242F462F682F8091B3
:100D7000A0020E9497060E94DC0B08950E94BD14F9
:100D800008950E94C114089508950E946C0B0E945A
:100D9000C4062FEF84E39CE0215080409040E1F7AF
:100DA00000C0000008950E94C5060E941C250895F9
:100DB0000E94C5060E942D2508950F931F93CF937F
:100DC000DF938C0161E00E947D06EC01B8010E9476
:100DD000AC1B882309F441C0B801CE010E944A0629
:100DE0008823D9F1B801CE010E94F0208823A9F10F
:100DF000B801CE010E94EE1C882379F1B801CE0122
:100E00000E945620882349F1F8018281882389F0C5
:100E1000CA35FDE5DF0709F440C078F4C130ECE5E0
:100E2000DE0709F1CE3DFCE5DF0779F1C115DC45B0
:100E300091F0C8010E94460611C0CC35EDE5DE07F1
:100E400049F1C73AFDE5DF0711F1CB35DD4589F7FB
:100E50000E94C210EECF0E94D30680E0DF91CF91B6
:100E60001F910F91089590910203892F8E7F90FF1B
:100E700081608093020380FF05C086E493E00E94B6
:100E8000AE03EBCF84E393E0FACF0E947A110E9485
:100E9000D806E3CF0E94B410CCCF0E94BE10C9CFB9
:100EA0000E941D240E94810708950E9485070E94C8
:100EB00022240895829594E0899F900111242C7C2E
:100EC000869586958373282B30E0C901880F991F7A
:100ED0008A7A359527952575822B089508950E9465
:100EE0006E07089581E008950E947207089508959D
:100EF000CF93C82F0E946F078C2F0E947407CF9149
:100F0000089580E00E94780708950E940C230E94B3
:100F100078070895CF930E940C23C82F80917C02FC
:100F20008C1789F1C0937C020E94AC2460937D02EF
:100F300070937E0280937F029093800280910203DF
:100F400082FF1EC080FF1CC08EE593E00E94AE03AE
:100F50008091020380FF14C01F92CF9389E593E034
:100F60009F938F930E944704809102030F900F90EC
:100F70000F900F9080FF04C087E593E00E94AE03BE
:100F80008C2F0E947807CF910895ABE0B0E0EBEC96
:100F9000F7E00C94AC2D142F4F83052F58876987E9
:100FA0007A878B87EA84FB8461110E94EA0F1E8294
:100FB00085E0FE013796DE01119601900D928A952B
:100FC000E1F7E114F10461F449815A816B817C817C
:100FD0008D819E810E94100F2B96E6E00C94C82D07
:100FE00010231F3F89F3CE0101960E9487068111CD
:100FF000EBCFF2CFFC01808191810E94CE0C08954D
:10100000CF93C82F8823C9F08238C9F40E940C23DB
:1010100081FD13C089E30E949F0F0E940B102FEFE8
:1010200037EE83E0215030408040E1F700C00000FF
:1010300089E30E94A70F0E940B10CF910895833877
:10104000A1F40E940C2380FDF8CF83E50E949F0F3E
:101050000E940B109FEF21EE34E091502040304071
:10106000E1F700C0000083E5E4CF8438A1F40E94DA
:101070000C2382FDE2CF87E40E949F0F0E940B1099
:101080008FEF91EE24E0815090402040E1F700C0C6
:10109000000087E4CECF8CEF8C0F813A90F46C2F58
:1010A00080910101909102010E94AD23882329F0D3
:1010B0008C2F0E94A70F0E940B108C2F0E949F0F55
:1010C000BACF80E28C0F883048F4C77081E001C04D
:1010D000880FCA95EAF70E94CB0FADCF8BE58C0F36
:1010E000833038F42C2F2452330BC9010E94702313
:1010F000A4CFE8E5EC0FE73150F4F0E0EE0FFF1F6E
:10110000E75BFE4F808191810E94862396CFC03F8E
:1011100008F493CF8C2F0E94BA180E947B198DCFB0
:10112000882309F455C0823879F40E940C2381FF8A
:101130004FC089E30E949F0F0E940B1089E30E9419
:10114000A70F0E940B100895833859F40E940C23B6
:1011500080FF3EC083E50E949F0F0E940B1083E535
:10116000EECF843859F40E940C2382FF31C087E40B
:101170000E949F0F0E940B1087E4E1CF9CEF980F15
:10118000913AE8F290E2980F983050F4877091E02D
:1011900001C0990F8A95EAF7892F0E94D10FD1CF0C
:1011A0009BE5980F933028F480E090E00E94702334
:1011B000089598E5980F973128F480E090E00E9418
:1011C00086230895803F20F00E9403190E947B1916
:1011D00008951F93CF93DF93182FEB010E9400080F
:1011E000209739F4812F0E949008DF91CF911F91B1
:1011F00008958FE99FE00197F1F700C00000219763
:10120000EFCF60E070E0893311F460E570E00E9498
:10121000E9080895882321F00E94CB0F0E940B104B
:101220000895882321F00E94D10F0E940B10089589
:10123000A0E0B0E0EEE1F9E00C94AA2D6C01D62F0D
:10124000C72FFC011281058102950F700E94C00F0B
:10125000E82E8823B9F0E12E1123A1F08C2F807F96
:10126000803421F080E28D0F8830B8F080915703F0
:1012700082FF13C082E00E946E100E94C00F91E0B6
:10128000E82EE926EC2FE295EF70C03C08F062C032
:10129000F0E0EB5BF14D0C94932DE12CF3CF0C2F90
:1012A0000F70C03110F00295007F112399F00023D8
:1012B00059F080E28D0F883010F0D11107C0802FD7
:1012C0000E94CB0F0E940B108D2F42C0802F0E94D6
:1012D000DC0FF8CF8D2F0E9490080023D9F180E217
:1012E0008D0F883010F0D11104C0802F0E94D10FD3
:1012F00003C0802F0E94E20F0E940B102BC0FC2F16
:10130000FF70FF2EC07FC03219F0F29480EFF822F8
:10131000DD2381F0D13009F459C0112309F461C0F3
:10132000002309F458C0F601858180FFCDCF8F706E
:10133000858351C08091570382FD2BC0112311F189
:10134000FF2029F08F2D0E94CB0F0E940B1080E010
:101350000E940008EE2089F00E94BC0F80FD0DC0A5
:10136000F60112820E94B60F0E94F00BC6010E9485
:101370002D0B0E94B60F0E94FC0BCDB7DEB7E8E044
:101380000C94C62D80E00E949008FF2019F38F2D49
:10139000ADCF112381F0011106C00E94ED0F8F29FE
:1013A0000E940A09D7CF0130C1F70E94ED0F8F29A3
:1013B0000E94F40FCFCF011106C00E9401108F2DA3
:1013C0000E941109C7CF013029F2F7CF112329F06C
:1013D000063008F0BFCF8F2DE3CF053008F0BACF2D
:1013E000EECF002361F3D93349F4FFEF27EE83E01A
:1013F000F15020408040E1F700C000008D2F0E9496
:101400009008A8CF8C2F869586958370882369F0E5
:10141000813009F09FCF8D2F9C2F9370111102C046
:1014200080E090E00E94862395CF8D2F9C2F9370B3
:10143000111102C080E090E00E9470238BCF8D2FAD
:10144000112329F00E94BA180E947B1983CF0E94B1
:101450000319FACF8C2F8370811134C0111124C06D
:101460004D2F429546954770440F440F8D2F8F7036
:10147000042E01C0880F0A94EAF7D071DD2341F0F1
:101480002FE030E001C0220F4A95EAF7D22FD09525
:10149000C695C695C3708D2BC23071F0C33079F0FC
:1014A000C13039F00E94CA0B0E940C230E947807B9
:1014B00051CF0E94C40BF8CF0E94D00BF5CF0E94F1
:1014C000C10BF2CF112339F1C0FFEECF4D2F429562
:1014D00046954770440F440F8D2F8F70042E01C026
:1014E000880F0A94EAF7D071DD2341F02FE030E055
:1014F00001C0220F4A95EAF7D22FD095C695C6951E
:10150000C3708D2BC23069F0C33071F0C13031F03F
:101510000E941E0CC9CF823038F2D8CF0E94180C1E
:10152000C3CF0E94240CC0CF0E94DC0BBDCFCF7074
:10153000112339F08C2F0E94F00B8D2F0E940A0985
:10154000B3CF8D2F0E9411098C2F0E94FC0BACCFC2
:10155000D23F31F170F4D03FB9F0D13FB1F1112356
:1015600009F451C0002309F44BC08D2F0E940008DC
:101570009BCFD33FE1F0D43F21F11111F3CF011103
:1015800050C08C2F8F71E1CF112341F0053008F04E
:101590008BCF8C2F8F710E940C0C86CF0530F7CF2C
:1015A0008C2F8F711111D1CF0E94F00B7DCF1123A1
:1015B00029F08C2F8F710E94E70B76CF0E94E30BEE
:1015C00073CF8091570382FD06C08C2F8F7111233A
:1015D00009F4BBCFE9CF112349F0CF718C2F0E94C2
:1015E000F00B63E08C2F0E9450105ECF81E00E94D0
:1015F0006E10023008F458CF82E00E946E1054CF73
:101600008C2F8F71D1CF002309F4BBCFD93349F48C
:101610009FEFE7EEF3E09150E040F040E1F700C0CB
:1016200000008D2F0E9490083FCF0F931F93CF9300
:10163000DF93EC01688179818A810E94DB0C8C0147
:101640000E942A0C0E94C00BB801CE010E9418090A
:10165000DF91CF911F910F910895CF93DF93EC010C
:10166000988189812B813C81232BB1F089238F3F85
:1016700099F0CE010E94DD06811111C00E94C00FB9
:10168000882351F08A81882339F08091570382FFA3
:1016900003C082E00E946E10DF91CF910895CE01C9
:1016A0000E94150BCE010E948906F6CF80E090E0E3
:1016B0000E94702380E090E00E9486230E94EA0F3F
:1016C0000E940B100E941A1A0E947B1908950E9412
:1016D000AF0F0E94560B08950E94D90F0E94670B0E
:1016E0000895282F92959F70963091F060F4925F44
:1016F0009F70923030F481E0203F79F030F4283E42
:1017000030F080E008959A5FF3CF243FD1F7089539
:1017100081E0283EE0F3213FF9CF0895FC01838169
:101720009481892B61F08181908189238F3F39F0E9
:10173000808191810E94CE0C0E94710B089580E0FF
:101740000895A5E0B0E0E7EAFBE00C94B02D259603
:10175000E2E00C94CC2DA6E0B0E0E1EBFBE00C94D1
:10176000B02D2696E2E00C94CC2D08950E94B50B86
:1017700008950E94B60B8093A1020E94560B089513
:1017800008950E94B90B08959091A102892B0E949F
:10179000B90B08959091A10289230E94B90B089575
:1017A0009091A10289270E94B90B08950E94B50B60
:1017B00008950E94D60B08950E94D90B8093A00231
:1017C0000E94560B089580E00E94DC0B089591E082
:1017D00001C0990F8A95EAF7892F0E94DC0B0895C2
:1017E00021E030E001C0220F8A95EAF78091A00243
:1017F000822B0E94DC0B089521E030E0A90102C099
:10180000440F551F8A95E2F7CA0180959091A00276
:1018100089230E94DC0B089521E030E001C0220FF3
:101820008A95EAF78091A00282270E94DC0B089536
:101830009091A002892B0E94DC0B08959091A00248
:1018400089230E94DC0B08959091A00289270E94B1
:10185000DC0B089508959B01677091E001C0990F1A
:101860006A95EAF763E0369527956A95E1F7B9013D
:10187000660F771F260F371FFA01E20FF31F40E0B4
:1018800050E0682F70E08191DF0111979B01042ED9
:1018900002C0369527950A94E2F7217021952827F2
:1018A000292328272C934F5F5F4F4330510559F769
:1018B00008959C01A82FA77083E0369527958A95F7
:1018C000E1F7C901880F991F820F931FFB01E80FF1
:1018D000F91F40E050E080E0219130E00A2E02C084
:1018E000369527950A94E2F721703327042E01C01C
:1018F000220F0A94EAF7822B4F5F5F4F4330510566
:1019000059F70895282F862F9A3060F4283050F424
:1019100038E0939FB0011124620F711D42E852E03C
:101920000E942B0C0895282F9A3068F4883058F4C0
:1019300038E0939FC001112462E872E0820F911D8C
:101940000E94590C089580E00895A0E0B0E0EBEA11
:10195000FCE00C94AB2D7C010091A0028091A102CF
:10196000082BC7E0D0E010E0C8010C2E02C095950E
:1019700087950A94E2F780FD09C02197A8F7D12C3A
:101980008D2DCDB7DEB7E7E00C94C72DDC2EB70167
:101990008C2F0E942F13019781F3F2CFCF93DF9307
:1019A000D82FC92F0E94A50C6D2F7C2F0E942F13BA
:1019B000DF91CF9108951F93CF93DF93162FD72FE9
:1019C00090918102992341F0862F972F0E94CE0C8F
:1019D000DF91CF911F910895882381F0862F972F53
:1019E0000E94A50CC82F682F812F9D2F0E94820C6A
:1019F000612F7D2F8C2F0E942F13EACF862F972FD8
:101A00000E94930CC82FF4CF0F931F93CF93E091B4
:101A1000A202C6E08091A3028E1304C0CF911F9151
:101A20000F9108950E2F10E0CE9FF0011124EC5578
:101A3000FD4F4081518162817381848195810E9433
:101A4000AB0BF8013196E770E5CF4091D40250918D
:101A5000D5026091D6027091D7028091D802909100
:101A6000D9020E94AB0B08951F93CF93DF9380910F
:101A7000D902803108F04CC08091D602882309F445
:101A800047C08091A2022091A3026091D4023091BC
:101A9000D502C091D702D091D802732F7623281790
:101AA000B9F190E0209709F443C016E07F3F09F4B4
:101AB0003FC0189FF001199FF00D1124DF01AC55B4
:101AC000BD4F11964C91119734132CC04C91461375
:101AD00029C012964C91129741111EC013964D9138
:101AE0005C914C1B5D0B483C5105E0F48091D902A0
:101AF0008F7080618093D902E755FD4F80818F7090
:101B00008061808384ED92E00E942D0B0E94040D81
:101B1000DF91CF911F91089501968770992728131F
:101B2000C8CFF6CF0196877099272813BFCFF0CF83
:101B300001968770B4CF8F929F92AF92BF92DF923F
:101B4000EF92FF920F931F93CF93DF93CDB7DEB742
:101B50002B970FB6F894DEBF0FBECDBF8C0185E08A
:101B6000F801DE01179601900D928A95E1F7F801D0
:101B7000F280A380B48084ED882E82E0982E90912C
:101B8000D4022091D5024091D7025091D80241153C
:101B9000510509F431C1822F89238F3F09F42CC1EB
:101BA000D090D602B501641B750BDD2009F4E8C0A6
:101BB0008091D902683C710508F0BBC03181803149
:101BC00008F079C0EF2C321314C02081291311C002
:101BD000F1101EC08F7080618093D9020E94250D84
:101BE000C4010E942D0B8091D902F8018583E12C5C
:101BF0004FC09F818885AB2889F0282F29232F3F4C
:101C000069F0E091A2022091A30236E0FF20E1F00A
:101C10008091D90281608093D902E9CFFF2039F306
:101C2000F7CF4E2F50E03E9FF0011124EC55FD4FB1
:101C30006181861306C06081691303C062816111EE
:101C4000D6CFFA013196E770E213EBCF8F819885FA
:101C50000E94CE0C292F22952F70903248F49F704D
:101C6000992311F08823A1F0805E883088F004C0A9
:101C7000225F2F70223028F0C8010E942D0BED2C1E
:101C800007C09F70992381F3F8019581903160F727
:101C90008E2D2B960FB6F894DEBF0FBECDBFDF9111
:101CA000CF911F910F91FF90EF90DF90BF90AF9079
:101CB0009F908F900895321312C0208129130FC076
:101CC000F1100DC08583C8010E942D0B86E0F8013C
:101CD000A4EDB2E001900D928A95E1F725C0C8010C
:101CE0000E948E0B882309F47BC0FF2009F478C082
:101CF0008091D902803270F02091D4023091D502C7
:101D00003A8329831B82BD82AC828E83CE010196E9
:101D10000E942D0B86E0F801A4EDB2E001900D9237
:101D20008A95E1F70E94340D0E94250DEE24E3947C
:101D3000AFCF803198F44F81588569857A858B853E
:101D40000E94A10B84ED92E00E942D0B86E0F4012D
:101D500011928A95E9F70E94250D49CF318123130D
:101D6000BECF20812913BBCFF110B9CF8583C80125
:101D70000E942D0B86E0F40111928A95E9F7D6CFE7
:101D8000683C710588F5FF2059F1818128131EC038
:101D9000808189131BC08091D90280FD0EC08031E3
:101DA00060F08583807F803F09F48DCF8581982FF7
:101DB000907F905F8F70892B85CF86E0F801A4ED2E
:101DC000B2E001900D928A95E1F7B0CFC8010E9470
:101DD0008E0B81119FCF8091D90281608093D902AF
:101DE000C8010E942D0BA2CF4F81588569857A8545
:101DF0008B850E94A10BAACFFF2091F3C8010E94FE
:101E00008E0B882369F386E0F801A4EDB2E001901F
:101E10000D928A95E1F784ED92E00E94FA0782CF55
:101E2000ACE0B0E0E6E1FFE00C94AF2D4F835887C3
:101E300069877A878B879C87CE0107960E949B0DC6
:101E40008823D9F08A859B85892B61F058854F813D
:101E5000852F84238F3F31F069857A858B859C851A
:101E60000E94AB0B16E08091A2029091A30289130D
:101E700044C02C96E3E00C94CB2D86E0FE0137960F
:101E8000DE01119601900D928A95E1F78F81988578
:101E90002091A3024091A2026A857B85672B11F3F2
:101EA00089238F3FF9F230E0C901019687709927A5
:101EB00050E08417950771F40E946C0B1092A302F6
:101EC0001092A20286E0E4EDF2E0DF011D928A9515
:101ED000E9F7C8CF96E0929FD001939FB00D1124EF
:101EE000AC55BD4FFE01319601900D929A95E1F7E8
:101EF0008093A3020E94040DB5CF189FC001112446
:101F00008C559D4F0E949B0D882309F4B2CFE09120
:101F1000A2021E9FF0011124EC55FD4F408151811A
:101F200062817381848195810E94AB0B8091A202B2
:101F300090E00196877099278093A20294CF682F32
:101F400080910101909102010E94E7230895682F7A
:101F500080910101909102010E94EA2308958091ED
:101F60000101909102010E94ED2308958091E20207
:101F700085958595859508958091E20287700895ED
:101F80009091E202977081E0911101C080E0089584
:101F90008091ED0208959091ED02982B9093ED02BF
:101FA0000895982F90958091ED0289238093ED02FA
:101FB00008951092ED0208959091EC02982B909361
:101FC000EC020895982F90958091EC0289238093DC
:101FD000EC0208951092EC0208958091E3020895B6
:101FE00008950E94F00F08959091570392FF08C042
:101FF0009091E302981721F08093E3020E94F10F81
:1020000008958091E302882329F01092E30280E092
:102010000E94F10F0895CF93DF93E0910101F091B9
:1020200002018091ED028083E0910101F0910201B3
:1020300080819091EC02892B80839091E302992317
:1020400081F0E0910101F09102018081892B808370
:1020500080910101909102010E949C2381110E94B4
:102060000110C0910101D091020148E050E06AEDF9
:1020700072E0CE010E94EB2D892B59F088E0FE0121
:10208000AAEDB2E001900D928A95E1F7CE010E948F
:102090002023DF91CF91089508950E944C10089558
:1020A0009091570392FF11C098E0899F90011124ED
:1020B000622B6093E2020E94F00B8091E202859510
:1020C000859585950E944D1008950E94F00B089506
:1020D0001092E20280E00E944D1008952091E202E9
:1020E000809582238093E202982F9770911113C0FC
:1020F00030E0482F082E000C550B2417350759F0F7
:102100009091570392FF07C08595859585950E940C
:10211000FC0B0E9468100895CF93C82F809157033D
:1021200082FB992790F99C17E9F0C0FB82F9809314
:10213000570380915603909157030E94F11082E05B
:102140000E946E108091020380FF0CC01F92CF93FB
:1021500089E693E09F938F930E9447040F900F901E
:102160000F900F90CF9108958091570382FB88279D
:1021700080F991E089270E948C10089581E00E94E7
:102180008C10089580E00E948C1008956FEF7FEF0F
:1021900080E090E00E942D2E089580E090E00E9463
:1021A000092E883E9E4F19F40E94371B089580E047
:1021B000089582E090E00E94012E089583E090E06F
:1021C0000E94012E0895CF9384E090E00E94012E9A
:1021D000C82F82E290E00E94012E982F8C2FCF9181
:1021E0000895CF93682FC92F84E090E00E940F2EAE
:1021F0006C2F82E290E00E940F2ECF910895AB01E8
:10220000BC018FE090E00E94212E0895AB01BC013B
:1022100083E190E00E94212E089560E070E0CB0100
:102220000E940611089560E070E0CB010E94FF104B
:102230000E940D11089568EE7EEF80E090E00E940C
:102240002D2E60E082E090E00E940F2E60E083E09F
:1022500090E00E940F2E1092A10260E084E090E0D6
:102260000E940F2E64E082E290E00E940F2E60E058
:1022700085E090E00E940F2E60E086E090E00E94F2
:102280000F2E6FEF87E090E00E940F2E40E050E0AD
:10229000BA0188E090E00E94212E60E08DE090E09D
:1022A0000E940F2E40E050E0BA0188E190E00E94C9
:1022B000212E60E087E190E00E940F2E40E050E088
:1022C000BA018CE190E00E94212E60E070E080E293
:1022D00090E00E942D2E40E050E0BA0188E190E0AD
:1022E0000E94212E80E00E94501B0E948F1B0E94A2
:1022F000131108950E941B110895682F8EE090E03D
:102300000E940F2E08950E94AC246093FE027093E9
:10231000FF0280930003909301036093FA0270938D
:10232000FB028093FC029093FD02089508950895A6
:10233000089581E497E20E9402230E9496110E9470
:102340003F0608950E94E5150895089508950E9496
:10235000A5110E94A61108950E94A1140E9477075A
:1023600008950E9497240E941B140E949F1B0E94A4
:1023700000160E946D150E94AC110E94D41C0E9490
:102380000A160E943A060895A5E0B0E0EAECF1E1F1
:102390000C94A82D0E948F1580EFC82E82E0D82EB5
:1023A000760110E0F70101917F01812F0E94C41492
:1023B0001F5F1A3009F442C00817A1F3809102038D
:1023C00081FD0E94CA140E94A211A82E00E0802F55
:1023D0000E94C414182FF60191916F01891741F1E1
:1023E000B82EB926F12CEE24E3948E2D8B21882370
:1023F000B9F0AA20A9F0F9820A8391E08E2D8123F9
:10240000811101C090E09B830E94A0248160782FFD
:102410009D838C8349815A816B81892F0E94C507D6
:10242000F394EE0CF8E0FF12E0CFF6013197108341
:102430000F5F0A3061F60E94831120C00813BECFDF
:102440000E94A0248C018091EE029091EF02081767
:102450001907A1F08FEF89838A831B820E94A02431
:102460008160782F9D838C8349815A816B81892F6C
:102470000E94C5071093EF020093EE020E94E5153B
:102480000E943B1A0E948A072596EAE00C94C42D0C
:10249000CF93DF930E943413EC01811522E592075C
:1024A00008F051C0811541E5940708F0ADC0883EA1
:1024B0009105E0F0811550E5950790F18695869598
:1024C00060E2869FC0011124C370DD2721E030E067
:1024D000A90102C0440F551FCA95E2F7EA01C82BB3
:1024E000D92BDD68CE01DF91CF910895803E910513
:1024F000C8F7883A910560F4853A910508F073C0F1
:102500008130910579F30497813A910558F305C01C
:10251000885A9109479708F469C0C0E0D0E0E2CF3B
:10252000C11580E4D80708F06CC0CF3FD10509F091
:1025300028F4C03FD10588F3D065D4CFCE019A9559
:102540008F3F9E41E3CF811546E5940738F581150D
:1025500055E5950708F06CC0811564E5960728F0ED
:10256000D82FCC27C46FD06ABDCF86958695AE0193
:102570004370552720E2C115D34508F04AC0829F19
:10258000C001112421E030E002C0220F331F4A9520
:10259000E2F7822B932BEC01DC68A4CF81154AE58E
:1025A000940780F4811559E5950708F04BC09855BC
:1025B0008F3F910511F008F0B0CFDC2FCC27C06F12
:1025C000D06A90CF90568115904208F0A6CF8D2FFB
:1025D0008F710E94D81390E0982F882788279F71C9
:1025E0008C2BEC012DC0A497D0647CCFC85AD0E0CE
:1025F000CC0FDD1FC958DE4F0990D881C02DD4649F
:1026000071CFDF70D06A6ECFD82FCC27C16FD06A60
:1026100069CF829FC001112421E030E002C0220F67
:10262000331F4A95E2F7822B932BEC01DA685ACFDD
:102630000E94D813C82FD0E0DC2FCC27CC27DF7125
:10264000D06250CF8F700E94D81334E0D695C795D2
:102650003A95E1F7CF709C2FEC01D06943CF0E94EF
:102660009D1F0E9448120895803E9105D1F1C8F443
:102670008133910509F47FC048F48932910509F44A
:102680006FC08A32910509F47DC0089589339105A0
:10269000E1F082389105C9F08533910509F45BC0FA
:1026A0000895843E9105D1F148F4823E910531F1BF
:1026B000833E910541F181EE90E00895863E9105BB
:1026C000C1F1873E9105E1F10895209156032370F1
:1026D000211165C02091570323FF14C089E290E0C7
:1026E00008952091560320FD43C03091570330FFD9
:1026F00009C024FF4EC080E090E008952091560369
:1027000022FDF7CF08952091560322FD45C0309158
:10271000570330FD44C024FFF5CFEDCF2091570380
:1027200021FFF0CF8091560384FDE5CF87EE90E046
:1027300008952091560323FFE5CF24FDDCCFF6CF8B
:102740002091560323FD2EC03091570331FFE3CF74
:1027500084EE90E008952091560325FFD3CFBECF9D
:102760002091560325FD21C02091570323FFCACF96
:1027700089E390E008952091560326FFC3CF8AE2B3
:1027800090E008952091560326FFBCCF81E390E0AE
:10279000089583EE90E0089582EE90E0089580EE33
:1027A00090E0089586EE90E0089585E390E0AACF4A
:1027B0009091560392FF06C0282F28712830F9F413
:1027C000877F846093FF06C0282F28712831F1F499
:1027D000877E84612091570320FF06C0382F38710F
:1027E0003830D9F4877F816021FF06C0282F2871F7
:1027F0002831D1F4877E816194FD877E0895282F4A
:1028000024712430F9F68B7F8860DCCF282F247167
:10281000243101F78B7E8861DDCF382F3171313063
:1028200019F78E7F8860E0CF282F2171213121F7A1
:102830008E7E8861E1CF1092520310925303109262
:102840005403109255030895CF92DF92EF92FF92B6
:10285000CF93DF9300D000D0CDB7DEB76B017C0102
:102860000E94E515811112C00E94AC2469837A830D
:102870008B839C83C61AD70AE80AF90AC0925203CE
:10288000D0925303E0925403F09255030F900F90AF
:102890000F900F90DF91CF91FF90EF90DF90CF904E
:1028A0000895A4E0B0E0E7E5F4E10C94B02D0E94B7
:1028B000E515882371F00E94AC2469837A838B83A9
:1028C0009C8369817A818B819C812496E2E00C94BF
:1028D000CC2D0E94AC2469837A838B839C83809166
:1028E000520390915303A0915403B0915503298151
:1028F0003A814B815C81280F391F4A1F5B1F298356
:102900003A834B835C83DDCF0E94C61008950E94FA
:102910008F152FEF89EF90E0215080409040E1F734
:1029200000C000000E948F1580E00E94C41480FF48
:1029300004C00E9484140E941C2508950E948714DC
:1029400008950E94CD10811102C00E947A110E9448
:10295000D910809302030E94E31090935703809351
:1029600056030E949E140E94DE100E94C10B8091AB
:10297000A0020E94D90B089508950E94BC140895E6
:1029800008950E94C0140895E82FF0E0EE59FC4F1E
:1029900080810895A0E0B0E0E0EDF4E10C94AA2D70
:1029A0008DE893E00E94AE0382E6E82E83E0F82EE5
:1029B000C0E0D0E098E8C92E93E0D92E00E813E0FB
:1029C000DF93CF93DF92CF920E94470485E893E094
:1029D0000E94AE03F70181917F010E945A071F9266
:1029E0008F931F930F930E9447048EE793E00E94FA
:1029F000AE0321968DB79EB708960FB6F8949EBF8A
:102A00000FBE8DBFCA30D105D9F6CDB7DEB7E8E02D
:102A10000C94C62D0E94EC050895A5E0B0E0E3E11A
:102A2000F5E10C94AB2D0E94E515182F6091510330
:102A3000882309F445C01A821982FE01339683E087
:102A4000DF011D928A95E9F7862F90E032977F018A
:102A5000BF018E599C4F0E941816DE2C0F2D882323
:102A6000B9F08091500390E045E050E0B7018E59F5
:102A70009C4F0E94EB2D21E020930303892B99F4B6
:102A800010E00E94C106812F2596E7E00C94C72D27
:102A9000809103038823A1F385E0D7011D928A95D5
:102AA000E9F710920303A0915003B0E0AE59BC4F78
:102AB00085E0ED2DF02F01900D928A95E1F7E1CFA1
:102AC00070E06E597C4F8091500390E08E599C4F7E
:102AD0000E94B6160E940A15D6CF8091030190E09D
:102AE000811101C095E09093510385E0891B80938B
:102AF00050030E94ED058AE0E8E5F3E0DF01982F3E
:102B00001D929A95E9F7E2E6F3E0DF011D928A95BE
:102B1000E9F785E00E94A5150E94BE060895CF93AF
:102B200088E593E00E941706282F6091510370E01A
:102B30006E597C4F45E088E593E00E94A615C82FAA
:102B40000E940D158C2BCF9108950895A0E0B0E060
:102B5000ECEAF5E10C94AB2DD82EE92EF62E072FDA
:102B6000C42F222349F081E0809306030E94A02411
:102B7000909305038093040310910603111107C07D
:102B800010E0812FCDB7DEB7E7E00C94C72D809120
:102B90000403909105030E94C9240A9788F3D0E0AA
:102BA000AE016D2D7E2D8F2D902F0E94EB2D892B48
:102BB00051F0AE016D2D7E2D8F2D902F0E94F82D9E
:102BC00010920603DECF10E0FBCF80910903811144
:102BD00007C00E94662D882351F081E0809309038D
:102BE00081E090910903913009F080E0089582E03E
:102BF000809309030E94612DF3CF0E94E51508958B
:102C00000E94FD15809303010E94E51581110E9429
:102C1000631608950E94E515811102C00E94661690
:102C2000089581E090910A039A3008F080E00895B9
:102C30000F931F93CF93DF93D82FC92F8B018091D0
:102C40000A038A30C0F48D2F0E94B316811131C05F
:102C500080910A038F3F81F50E94A024909308037E
:102C6000809307038091020380FF0EC08FEA93E0F8
:102C70000E94AE0309C080910703909108030E944F
:102C8000C924843F914030F480E0DF91CF911F91BF
:102C90000F910895B8018D2F9C2F0E94B3168823A1
:102CA000B9F28091020380FF04C08CE993E00E9496
:102CB000AE0310920A0305C08F5F80930A038A3027
:102CC00058F681E0E2CF0E949F2108950E94A22140
:102CD0000895A0E0B0E0EFE6F6E10C94AA2DFA0129
:102CE00069017801C82F880FDD0B3097B1F0DE0144
:102CF00093E0AA0FBB1F9A95E1F7AC5FBE4F119608
:102D00008D919C911297855F9C4F4C9150E0E417F8
:102D1000F50708F4AF010E94F82DCE010E948D2224
:102D2000182F8823D1F0E114F104B9F083E0CC0F1F
:102D3000DD1F8A95E1F7FE01EC5FFE4F438150E015
:102D4000E416F50608F4A701CC5FDE4F6C817D81A7
:102D5000655F7C4FC6010E94F82D812FCDB7DEB78D
:102D6000E8E00C94C62D0E94C81708950E94E5174C
:102D70000895A8E0B0E0EFEBF6E10C94AE2D809161
:102D8000220390912303A0912403B0912503BC0159
:102D9000CD010E94D82411E06436710581059105AA
:102DA00020F10E945114DC01CB010296A11DB11D3E
:102DB00089839A83AB83BC8300E010E020E030E09D
:102DC00044E050E0BE016F5F7F4F82E00E946916D1
:102DD000182F882351F00E94AC2460932203709333
:102DE00023038093240390932503812F2896E4E006
:102DF0000C94CA2DA0E0B0E0E0E0F7E10C94A52D22
:102E0000E82E992E862E772E042FF52E69010E942A
:102E10001116AA24A394B12C882319F08AE0A82EB5
:102E2000B12CC1E0D0E0682D772D8E2D992DF601C3
:102E30000995182F811126C02196AC16BD0694F075
:102E4000CC9FC001CD9F900D900D112420E030E06B
:102E500045E34A95F1F700002F5F3F4F8217930734
:102E6000B9F7E1CF8091020380FF0CC0FF920F936E
:102E700085EE93E09F938F930E9447040F900F90ED
:102E80000F900F90812FCDB7DEB7EDE00C94C12DE0
:102E9000AAE0B0E0EEE4F7E10C94A82D7B01A0904D
:102EA000A501B090A60101E010E09E012A5F3F4F0E
:102EB00040E050E060E070E080E00E946916182F6A
:102EC000882309F44DC065018FEFC81AD80A809194
:102ED0001E0390911F03A0912003B0912103BC0118
:102EE000CD010E94D8246F83788789879A876436BA
:102EF00071058105910560F105E010E09E012F5FED
:102F00003F4F40E050E060E070E081E00E946916D1
:102F1000182F65E070E0C6010E94D51C9E819813B1
:102F20002AC0112341F10E94AC2460931E037093C8
:102F30001F03809320039093210385E0FE013196C7
:102F4000A9E1B3E001900D928A95E1F781E014C008
:102F500065E070E0C6010E94D51C9E818913CCCF2C
:102F600085E0F5013196DE01119601900D928A956A
:102F7000E1F71111E2CF80E095E0E9E1F3E0D7015C
:102F800001900D929A95E1F72A96EAE00C94C42DEF
:102F90000F931F93CF93DF93D82FC92F8B0128E472
:102FA00037E147EA51E00E94FA16882349F029EBFD
:102FB00036E144EB51E0B8018D2F9C2F0E94FA16A8
:102FC000DF91CF911F910F9108950F931F93CF938E
:102FD000DF93FB01C091A501D091A601CE0101961E
:102FE00025E0DC0101900D922A95E1F765E070E0A3
:102FF0000E94D51C88836E817F8188859985009188
:1030000015031091160320911703309118036017D0
:1030100071078207930751F06093150370931603AD
:1030200080931703909318030E942414DF91CF918B
:103030001F910F9108950E94BD270E94B1110E9417
:10304000CA2708950E94CF270E94C4110E94ED272D
:1030500008950E9439240E94A3270E9499110E947A
:103060001B180E9422180E94A711FBCF80912C03ED
:1030700080FF0DC06091210170E0660F771F6038FE
:103080007105C0F561157105B9F1862F089581FFAD
:1030900007C06091210184E0689FB0011124EFCF47
:1030A00082FF04C06091210188E0F6CF80912B035C
:1030B0008823E9F0909120016091210170E0891747
:1030C00030F093E0660F771F9A95E1F7D8CF869F8F
:1030D0009001879F300D112483E0220F331F8A95C2
:1030E000E1F7692F70E0C9010E947F2DC8CF68E029
:1030F00070E0CBCF8FE7089581E0089580912C0395
:1031000080FF0CC060911D0170E075956795759505
:1031100067956115710561F1862F089581FF06C0DD
:1031200060911D0170E075956795F3CF60911D0169
:1031300070E082FD15C020912A032223B1F0909106
:103140001C0160911D0170E0291750F4269FA00119
:10315000279F500D1124692F70E0CA010E947F2D16
:1031600060387105B0F28FE7089561E070E0D4CF68
:1031700081E00895E0E1E80F803FE0F1F0E0EF5AF0
:10318000F14D0C94932D0E94361881958093300355
:1031900008950E943618FACF0E94361881958093C0
:1031A0002F0308950E943618FACF0E947E1880934C
:1031B000310308950E947E188195F9CF0E947E18F0
:1031C00081958093320308950E947E18FACF845F20
:1031D000990B21E030E001C0220F8A95EAF7809137
:1031E0002E03822B80932E03089580912C038160FF
:1031F00080932C03089580912C038260F9CF8091F5
:103200002C038460F5CF40912F03803F59F48091C7
:10321000300387FF0DC010923003442359F41092FD
:103220002B0308C0813F81F48091300318169CF372
:10323000442381F08091310390913203892B8111D5
:1032400059C010922A030895823F41F447FFF0CFFE
:1032500010922F03809130038823E0CF833F19F42D
:103260001416B4F3E5CF90913103893F29F4191670
:10327000FCF610923103DCCF8A3F19F497FFD8CFC8
:10328000F8CF909132038B3F29F497FFD1CF109262
:103290003203CECF8C3F19F41916CCF3C9CF9CE082
:1032A000980F953090F4845F990B21E030E0B901DC
:1032B00002C0660F771F8A95E2F7CB018095909147
:1032C0002E03892380932E03B3CF8D3F31F4809159
:1032D0002C038E7F80932C03ABCF8E3F21F4809103
:1032E0002C038D7FF7CF8F3F09F0A2CF80912C0365
:1032F0008B7FF0CF08958091020383FF7EC082E22E
:1033000094E00E94AE0380912E031F928F938DE173
:1033100094E09F938F930E9447048BE194E00E9476
:10332000AE0380912F03282F082E000C330B3F9300
:103330008F9388E194E09F938F930E94470486E1E6
:1033400094E00E94AE0380913003282F082E000CD9
:10335000330B3F938F9383E194E09F938F930E946D
:10336000470481E194E00E94AE0380913103282F4D
:10337000082E000C330B3F938F938EE094E09F93C5
:103380008F930E9447048CE094E00E94AE038091EA
:103390003203282F082E000C330B3F938F9389E0C4
:1033A00094E09F938F930E94470486E094E00E94EC
:1033B000AE0380912B031F928F9383E094E09F9341
:1033C0008F930E94470481E094E00E94AE038091B5
:1033D0002C031F928F938EEF93E09F938F930E9405
:1033E00047048BEF93E00E94AE038DB79EB74C96D7
:1033F0000FB6F8949EBF0FBE8DBF0E94A0242091EF
:103400002F0330913003232B222321F080932803B4
:10341000909329032091310330913203232B2223EF
:1034200021F080932603909327038DE293E00E947E
:103430006123089586E0EDE2F3E0DF011D928A95B5
:10344000E9F710922B0310922A0310922C0308958F
:10345000FC01828181110DC0838181110AC08481A8
:10346000811107C081E09581911101C080E08170D8
:10347000089581E0FCCFA6E0B0E0E1E4FAE10C942D
:10348000AD2D86E0EDE2F3E09E012F5F3F4FD901C5
:1034900001900D928A95E1F710922F03109230035C
:1034A00010923103109232038B819C81892B890108
:1034B000882391F080912803909129030E94C924C8
:1034C0009C0180912B038823C9F14091220150E097
:1034D0004217530708F43FC08D819E81892B8823B2
:1034E00099F080912603909127030E94C9249C01A2
:1034F00080912A03882309F46DC040911E0150E099
:103500004217530708F474C0B8018DE293E00E949B
:10351000F523811105C08DE293E00E94281A8111E4
:103520000E947B1986E0F801ADE2B3E001900D92B4
:103530008A95E1F72696E5E00C94C92D4091230188
:103540009AE0499FA00111244217530728F68F5F84
:1035500080932B0302C08F3FD1F7FB80FF2059F0EF
:103560000E94361891E01F140CF09FEF899F802D68
:10357000112480932F03FC80FF2059F00E943618FD
:1035800091E01F140CF09FEF899F802D11248093F0
:10359000300330912F03332309F49ECF2091300361
:1035A000222309F499CF45EB3403C0011124892F5C
:1035B000911101C081E080932F0345EB240390011A
:1035C0001124332319F03093300386CF81E08093A8
:1035D000300382CF40911F019AE0499FA00111243E
:1035E0004217530708F090CF8F5F80932A0302C0E1
:1035F0008F3FD1F7FD80FF2059F00E947E1891E0A7
:103600001F140CF09FEF899F802D112480933103AC
:10361000FE80FF2059F00E947E1891E01F140CF0EC
:103620009FEF899F802D11248093320330913103C5
:10363000332309F469CF20913203222309F464CFA4
:1036400045EB3403C0011124892F911101C081E0A1
:103650008093310345EB240390011124332319F0A7
:103660003093320351CF81E0809332034DCF83E218
:1036700090E00E94012E843289F484E290E00E945E
:10368000012E833059F485E290E00E94012E91E0F2
:10369000873109F090E0892F8170089580E0FCCF98
:1036A000882381F064E283E290E00E940F2E63E0C1
:1036B00084E290E00E940F2E67E185E290E00E9494
:1036C0000F2E08956FEF83E290E00E940F2E6FEFB0
:1036D00084E290E00E940F2E6FEFEFCF0895A4E0F8
:1036E000B0E0E5E7FBE10C94B02D86E290E00E94AB
:1036F000012E282F30E040E050E0CA01B9012496A5
:10370000E2E00C94CC2D0895CF93C62F0E94831B2A
:103710006C2F86E290E00E940F2ECF91089580E0FA
:103720000E94501B60E070E0CB010E94841B0E944D
:103730001E1F0E94F31F81E00E94501B08950E94EB
:103740006E1B0E946F1B0E94831B0E94371B8111FE
:1037500002C00E948F1B08959C01FB018281882377
:1037600029F1A90142515F4540315105B8F48EEE6F
:10377000820F0E94032080E0089581E00E94F00BF8
:1037800003C081E00E94FC0B43E062E081E00E9404
:10379000B406F1CF82E0F2CF82E0F4CF2031FFE532
:1037A0003F0759F321313F45A9F308952031EFE553
:1037B0003E0739F321313F4579F381E008952FEF3A
:1037C000FC0120830895AEE0B0E0E9EEFBE10C944B
:1037D000AC2D8D839E83162FAD81BE81EC91E1507F
:1037E000E33108F080C0F0E0EF59F14D0C94932DD7
:1037F000ED81FE8111828AE08283612F8D819E811D
:103800000E94C0252E96E6E00C94C82DAD81BE81A5
:1038100011968C91823079F08330D1F0813041F56E
:103820000E94AC240E94992DED81FE8162837383F6
:1038300084839583E2CF0E946F1B0E94992DAD81F6
:10384000BE8112966D937D938D939C931597D5CFE2
:10385000ED80FE80B2E0EB0EF11C00E0802F0E94B4
:10386000C414F70181937F010F5F0A30B9F7C5CF08
:10387000612F8D819E810E94DF1BBFCFAD81BE81F4
:1038800011968C911197823099F712968D919D9196
:103890000D90BC91A02DBC01CD010E94992D0E94DC
:1038A000841BABCFED81FE814381628181810E94C7
:1038B000E01E982789279827AD81BE8115969C9395
:1038C0008E9314979ACFED81FE8124813581322722
:1038D000232732274381628181810E94021F8DCF7D
:1038E0000E941E1F8ACF8FEFAD81BE818C9385CF42
:1038F0000E94AB1FED81FE8181837FCF0E94AD1FAF
:10390000982789279827AD81BE8112969C938E9324
:10391000119773CFED81FE81638170E08181928187
:10392000AF014C5F5F4F9827892798270E94B01FEF
:1039300064CFAD81BE8113966C91139770E01196A0
:103940008D919C911297AD014C5F5F4F982789270D
:1039500098270E94D21F51CF0E94F31F4ECF0E9482
:10396000CD1EC8CFAD81BE8113966C91139770E0C8
:1039700011968D919C911297AD014C5F5F4F9827E6
:10398000892798270E945C1F38CFED81FE816381D3
:1039900070E081819281AF014C5F5F4F982789274A
:1039A00098270E947D1F29CF0895FC01680F791F79
:1039B0008FEF91E3E617F70709F408952191822725
:1039C00028E030E087FF08C0880F8927215031099F
:1039D00021153105B9F7EECF880FF8CFCF93DF93DC
:1039E000EC01FB018281882309F401C1C136FDE5A8
:1039F000DF0709F451C0A8F5C631ECE5DE07C8F4CD
:103A0000C230FCE5DF0708F45AC00E94E31090932F
:103A1000570380935603FE01E350FC458091560303
:103A20008160E331F10508F03FC0EC58F14D0C9492
:103A3000932D9E012A5F3C452930310508F03FC097
:103A40000E94E3109093570380935603FE01EB5FAF
:103A5000FC45E830F10508F04AC0E957F14D0C94F7
:103A6000932DC53A9DE5D90769F19E012D5A3D4533
:103A70002330310520F50E94E31090935703809383
:103A80005603CD3AEDE5DE0709F0B3C08091570348
:103A90008860809357030AC00E94E31090935703F5
:103AA000809584FB809584F980935603809156031A
:103AB000909157030E94F1100E946C0B80E0DF91FF
:103AC000CF9108950E94E31090935703809580FB57
:103AD000809580F9E9CF809156038260E5CF80918F
:103AE00056038460E1CF809156038860DDCF8091DA
:103AF00057038160CECF809157038260CACF8091F7
:103B000056038061D1CF809156038062CDCF8091E2
:103B100056038064C9CF0E946C0B80915603806865
:103B2000C3CF809156038C60BFCF809157038360D1
:103B3000B0CF809156038E7FB7CF809156038D7F93
:103B4000B3CF809156038B7FAFCF80915603877F91
:103B5000ABCF809157038E7F9CCF809157038D7F91
:103B600098CF809156038F7E9FCF809156038F7D93
:103B70009BCF809156038F7B97CF0E946C0B8091D7
:103B800056038F7791CF80915603837F8DCF80919D
:103B900057038C7F7ECF8091560382FB992790F943
:103BA00021E0922790FB82F990FB83F97DCF8091F1
:103BB0005703982F909591708E7F892B90FB81F9F8
:103BC00068CF0E946C0B90915603892F97FB87F961
:103BD00080586ACF81E00E947D1168CF80E0FBCFE2
:103BE00090915703892F877F93FF886052CF81E0A0
:103BF00066CFCE3ADD45A1F780915703877F49CF45
:103C0000FF920F931F93CF93DF93E82FF0E0EB5BCE
:103C1000FB4FF490282F26952695269530E0F90144
:103C2000EB51FB4F94918770F901EB52FB4F0491DC
:103C300010E0082E02C0159507950A94E2F701706E
:103C40001127F901EB53FB4FC491D0E0082E02C0BD
:103C5000D595C7950A94E2F7C170DD27E92FF0E00A
:103C600002C0F595E7958A95E2F7E0FD10C00115D1
:103C70001105C1F48F2D0E940109CD2B19F08CE2A2
:103C80000E940109CDB7DEB7E5E00C94C92D81EEA5
:103C90000E9400080115110579F48F2D0E94010979
:103CA00081EE07C086EE0E9400088F2D0E94010958
:103CB00086EE0E949008E1CF86EE0E9400088F2DCC
:103CC0000E94010986EE0E949008EACFEF92FF92CF
:103CD0001F93CF93DF93EC01162F8881882309F47B
:103CE00056C0813009F050C089818130A1F47E0135
:103CF00022E0E20EF11C8A810E940109E70121966F
:103D0000812F882351F3EFE9FFE03197F1F700C0ED
:103D100000008150F6CF823041F47E0182E0E80E4F
:103D2000F11C8A810E940008E9CF833041F47E01B2
:103D3000E2E0EE0EF11C8A810E949008DFCF843011
:103D400011F02196DCCF2A81229680E090E06AE093
:103D5000AE014F5F5F4F2053330B2A30310548F0DF
:103D6000019768F2EFE9FFE03197F1F700C000003A
:103D7000F7CF689FF001699FF00D1124C9018E0FE4
:103D80009F1F2981EA01E4CF0E94001EB8CFDF9176
:103D9000CF911F91FF90EF90089584E0089590E1F6
:103DA000699FB001112450E0440F551F640F751F27
:103DB00090EA899F600D711D1124CB0187960895AB
:103DC0000F931F93CF93DF938430C8F46A30B8F415
:103DD0004830A8F40E94CF1E8C010E94012EC82FEB
:103DE000D0E0DC2FCC27C80101960E94012E9E0155
:103DF000282BC901DF91CF911F910F91089580E089
:103E000090E0F8CF0F931F93CF93DF93122F032FE0
:103E1000843078F46A3068F4483058F40E94CF1E39
:103E2000EC01602F0E940F2E612FCE0101960E949F
:103E30000F2EDF91CF911F910F910895A0E0B0E078
:103E4000E4E2FFE10C94A82DA12CB12CC0E0D0E05D
:103E5000650110E01CC00E94440690E021E030E0C3
:103E6000C817D9071CF4F70125913491402F612F11
:103E70008C2F0E94021F22E0E20EF11C0F5F08301F
:103E800051F738E0C30ED11C1F5F1A3049F0C6014C
:103E9000880F991F9C012C543F4F790100E0DBCF24
:103EA000219630E5A30EB11CC430D10589F6CDB7FB
:103EB000DEB7EAE00C94C42DEF92FF920F931F93AC
:103EC000CF93DF938C01EA017A01E60EF71ECE153F
:103ED000DF0529F4CDB7DEB7E6E00C94C82D003835
:103EE00082E0180740F4C80187960E94012E89934A
:103EF0000F5F1F4FECCF80E0FACFEF92FF920F934E
:103F00001F93CF93DF938C01EA017A01E60EF71E2F
:103F1000CE15DF0529F4CDB7DEB7E6E00C94C82D49
:103F2000003882E0180728F46881C80187960E944B
:103F30000F2E21960F5F1F4FEBCF462F672F843038
:103F400038F47A3028F4483018F40E94E01E0895BE
:103F500080E090E0089580E1089589E591E008957A
:103F6000EF92FF920F931F93CF93DF938C01EA019F
:103F70007A01E60EF71ECE15DF0529F4CDB7DEB7C0
:103F8000E6E00C94C82D093581E0180748F4C80113
:103F900089559D4F0E94012E89930F5F1F4FEBCFD4
:103FA00080E0FACFEF92FF920F931F93CF93DF93AE
:103FB0008C01EA017A01E60EF71ECE15DF0529F421
:103FC000CDB7DEB7E6E00C94C82D093581E01807BF
:103FD00030F46881C80189559D4F0E940F2E2196AB
:103FE0000F5F1F4FEACFCF93DF93C7EAD2E060E0C5
:103FF000CE010E940F2E2196C11584E0D807B9F793
:10400000DF91CF910895A4E0B0E0E9E0F0E20C94F4
:10401000AB2DF82E8FE08F1588F18FEF93E00E9483
:10402000012E81112BC007EA12E0F1102BC0809104
:10403000350190913601A0913701B0913801898303
:104040009A83AB83BC83DD24D39478018FEFE81A85
:10405000F80AC8010E94012E89831A82882371F010
:104060009FEF980F9330D8F48A83D9820E5F1F4F49
:10407000C7010E94012E8B83811112C02496E7E0B4
:104080000C94C72D011584E01807C1F3C8010E94E4
:10409000012E0F5F1F4F8111F5CFFA94C6CF870114
:1040A00060E0CE0101960E94661ECFCFCF93DF93D2
:1040B000EB0186319C4519F50E94C80F9A8199231E
:1040C000A1F08A7A91E0811101C090E090933303CE
:1040D000882349F085E30E949F0F0E940B1080E027
:1040E000DF91CF91089589E2F6CF80913303882341
:1040F00021F085E30E94A70FF0CF89E2FBCF81E09A
:10410000EFCF0F931F93CF93DF93C42FD22FFC01D8
:1041100082818823C9F0409336030E94A0249093A3
:1041200035038093340380E28C0F883040F4C770ED
:1041300081E001C0880FCA95EAF70E940A09DF9161
:10414000CF911F910F9108951091360314133CC025
:1041500080913403909135030E94C924883C9105D5
:1041600098F5C0E2CD0F1D1741F180E2810F883034
:1041700040F4177081E001C0880F1A95EAF70E9499
:104180001109C83020F0802F0E940109D8CF91E09A
:104190008D2F877001C0990F8A95EAF7892F0E94A9
:1041A0000A09802F0E940109D77081E001C0880FA1
:1041B000DA95EAF70E941109C2CF802F0E94010907
:1041C000C83008F0BCCFF0CF80E28C0F883008F008
:1041D000B6CFC77081E001C0880FCA95EAF7EACF71
:1041E0000F939C01CB01233F4CE53407A1F190F4E0
:1041F000283DFCE53F0749F1293D4CE53407E9F14D
:10420000273D3C45C1F0FC018281811110923603AB
:1042100081E019C0253FFCE53F0719F1263F4CE539
:10422000340729F1243F3C4571F707E225EE44EEBF
:1042300064EF7CE505C006E221EE41EE67ED7CE52A
:104240000E94812080E00F91089507E225EE45EE5F
:1042500068ED7CE5F5CF06E221EE40EE63EF7CE50C
:10426000EFCF06E221EE42EE65EF7CE5E9CF07E213
:1042700025EE46EE66EF7CE5E3CF08E221E045EE71
:1042800069ED7CE5DDCF8EE14A9B03C08150811151
:10429000FBCF4A9BFECF08955A9880E28A95F1F7AA
:1042A0005A9A0895FC013BE03A95F1F798E020E036
:1042B00080E031E040E14A95F1F7880F4A9B02C067
:1042C0008160232742E04A95F1F7000040E14A95DA
:1042D000F1F791509111EECF90E19A95F1F799B1E4
:1042E00032E03A95F1F7000040E14A95F1F792FB90
:1042F000992790F992272081920F90830895A1E049
:10430000B0E0E5E8F1E20C94AC2D19828C017C015F
:10431000E60EF11C0E151F0541F481E09981911103
:1043200080E02196E6E00C94C82D0E944321CE0146
:1043300001960E945221F80181938F01EBCF529A8E
:104340005A9A089552985A9AEA9AE9E6F0E08081DA
:104350008F7C808308956150770B91E001C0990FA5
:104360006A95EAF7692F90E021E0611108C099236E
:1043700099F05A9A80E28A95F1F75A980895362F63
:104380003823332339F05A9A922730E23A95F1F7DD
:104390006695EBCF5A98F9CF5A98ECCFFF920F93CE
:1043A0001F93CF93DF93EC018C01060F111DC017F3
:1043B000D10729F4CDB7DEB7E5E00C94C92DF9900B
:1043C0000E944C2168E08F2D0E94AB21F0CF1F92FC
:1043D0000F920FB60F9211240F931F932F933F93B9
:1043E0004F935F936F937F938F939F93AF93BF93FD
:1043F000EF93FF93CF93DF930F92CDB7DEB7198280
:104400000E944321CE0101960E945221082F069559
:1044100006950695982F92959570202F2570920FEE
:10442000292F237096959695920F982797708981DA
:10443000892B81115CC0043008F059C080E18A9555
:10444000F1F75A9A529A82E08A95F1F700C05A9889
:1044500088E0089F80011124D801AC5FBE4F1696FA
:10446000ED91FC9117973097A9F06091A50170919B
:10447000A60114962D913C911597260F371F119682
:104480008D919C911297680F791F13964C911397F9
:104490008C910995F801EC5FFE4F6381662351F022
:1044A0002091A5013091A60184819581820F931FEF
:1044B0000E94CE210E944C2180E18A95F1F75A9802
:1044C00052985A9A80E18A95F1F7F801EC5FFE4F15
:1044D0006081662351F02091A5013091A601818170
:1044E0009281820F931F0E947F210E9443210F908F
:1044F000DF91CF91FF91EF91BF91AF919F918F91FC
:104500007F916F915F914F913F912F911F910F91EB
:104510000F900FBE0F901F9018950F931F93CF937E
:10452000DF938C0104970CF065C0F894529A5A9866
:1045300085E08A95F1F70000C02FC695C570802FE1
:104540008570C80F8C2F8370C695C69593E0000FB9
:10455000111F9A95E1F7C80FC8018C2BEC010E943E
:104560004C2100C068E08C2F0E94AB2190E19A950D
:10457000F1F752985A9A4A9B35C087E090E04A99E1
:1045800033C0F801EC5FFE4F6381662361F0209138
:10459000A5013091A60184819581820F931F0E940D
:1045A0007F21882321F10E94432180E28A95F1F73F
:1045B0005A98529A90E19A95F1F7F801EC5FFE4F04
:1045C0006081662351F02091A5013091A60181817F
:1045D0009281820F931F0E94CE210E944C217894D9
:1045E00081E009C000C0C7CF0197009749F4529AF3
:1045F0005A9A789480E0DF91CF911F910F9108959E
:1046000000C0BDCF9093D5018093D40108959093BD
:104610003D0380933C0308950E94E515811103C07A
:10462000809137030895E0913C03F0913D0330976A
:1046300029F00190F081E02D0995089580E008951A
:10464000EF92FF920F931F93CF93DF938C01E09132
:104650003C03F0913D03309779F10280F381E02D26
:1046600009958091020382FF27C080FF04C08DEF6F
:1046700094E00E94AE03E801C80108967C0107EFB0
:1046800014E08091020380FF0BC088811F928F93FA
:104690001F930F930E9447040F900F900F900F905D
:1046A0002196CE15DF0569F78091020380FF04C0D3
:1046B00085EF94E00E94AE03CDB7DEB7E6E00C9440
:1046C000C82DDC01E0913C03F0913D03309739F0B7
:1046D00082E08C930480F581E02DCD010995089549
:1046E00020913A0330913B032817390771F09093DA
:1046F0003B0380933A03E0913C03F0913D033097F4
:1047000021F00680F781E02D099508952091380366
:10471000309139032817390771F09093390380934A
:104720003803E0913C03F0913D03309721F0008481
:10473000F185E02D099508959C01AC014E5F5F4F16
:10474000285F3F4F80E0FA0190814F5F5F4F9111EA
:104750008F5F24173507B9F708959C01662351F040
:10476000FC013296285F3F4F8191861729F0E217AE
:10477000F307D1F780E0089581E008959C01FC01E2
:1047800032968FEF90E04191461751F08F3F19F428
:10479000411101C0892F9F5F9630A9F78F3F09F41F
:1047A0000895280F311D87FD3A95F9016283089518
:1047B0009C01FC013296285F3F4F8191861303C014
:1047C000DF0111971C92E217F307B9F708950E94D1
:1047D000BE2308950E94D8230895FC01329686E0F6
:1047E000DF011D928A95E9F7089546E050E00E94A6
:1047F000EB2D9C0181E0232B09F480E008950895BE
:104800000E94FF2308958F5F80933E030E9400243F
:10481000089583E080933E030E94002408950E943F
:104820000324089581E080933E030E9400240895AC
:104830000E9412240895089508950E941C2408954A
:10484000089508950E941B240895CF930E94202468
:104850000E948F150E942124C0E08C2F0E94C41456
:10486000811105C0CF5FCA30C1F7CF91089581E0B3
:10487000FCCF85B7806885BF85B7806885BF089500
:104880001F921FB61F9211248F939F93AF93BF93D4
:1048900080913F03811113C080916C0390916D034F
:1048A000A0916E03B0916F034196A11DB11D80933D
:1048B0006C0390936D03A0936E03B0936F03BF914D
:1048C000AF919F918F911F901FBE1F90189580915F
:1048D0007403843031F10E94500710923F0388E145
:1048E00090E020E40FB6F894A895809360000FBE86
:1048F0002093600083B7817F846083BF83B781602A
:1049000083BF7894889583B78E7F83BF0FB6F89462
:10491000A89580916000886180936000109260008B
:104920000FBE08950E946C0B0E945507089582E007
:1049300084BD93E095BD9AEF97BD80936E00089576
:104940002FB7F89480916C0390916D03A0916E0342
:10495000B0916F032FBF0895A4E0B0E0E2EBF4E262
:104960000C94B02D8FB7F89420916C0330916D03A7
:1049700040916E0350916F0329833A834B835C838C
:104980008FBF69817A818B819C812496E2E00C94AF
:10499000CC2D9C014FB7F89480916C0390916D03DE
:1049A000A0916E03B0916F034FBF821B930B0895CC
:1049B000A4E0B0E0EEEDF4E20C94AE2D462F572FBC
:1049C000BC012FB7F89480916C0390916D03A09176
:1049D0006E03B0916F032FBF8C019D01041B150B5B
:1049E000260B370BC901B8012496E4E00C94CA2DBC
:1049F00078941F921FB61F9211248F939F93AF93A9
:104A0000BF9380916C0390916D03A0916E03B09160
:104A10006F030196A11DB11D80936C0390936D03EC
:104A2000A0936E03B0936F03BF91AF919F918F914D
:104A30001F901FBE1F90189587E797E79093010876
:104A40008093000888E19AE00FB6F894A8958093C7
:104A500060000FBE90936000FFCF88E19AE00FB630
:104A6000F894A895809360000FBE90936000FFCFEC
:104A700080914E030895089524E02093E9002FEFDC
:104A80003091E80035FD07C035ED3A95F1F70000AB
:104A900021502111F5CF2091E80025FF0BC040E007
:104AA00050E066E070E00E9491288091E8008E77E7
:104AB0008093E8000895CF93DF93D82FC92F81E02A
:104AC0008093E9008FEF9091E80095FD07C095ED88
:104AD0009A95F1F7000081508111F5CF8091E8009F
:104AE00085FD03C0DF91CF91089540E050E068E07C
:104AF00070E08D2F9C2F0E9491288091E8008E7786
:104B00008093E80088E0ED2FFC2FA6E4B3E001904D
:104B10000D928A95E1F7E6CF8093420370934403A8
:104B200060934303809174038430F9F48093E90027
:104B30008FEF9091E80095FD07C095ED9A95F1F7FC
:104B4000000081508111F5CF8091E80085FF0DC0F4
:104B500040E050E063E070E082E493E00E9491283E
:104B60008091E8008E778093E8000895BC0184E08E
:104B70000E948C250895BC0183E00E948C25089535
:104B8000CF93603211F5209174032430F1F4209119
:104B9000E900C091EC00C795CC27C7952F70C22BB8
:104BA00022E02093E9002091E80020FF0BC040E0C4
:104BB00050E060E270E00E9491288091E8008E77DA
:104BC0008093E800CF70C093E900CF91089583E20D
:104BD00095E00E94AE0380917303811109C00E9489
:104BE000682A0E94C52A8091E20084608093E200D6
:104BF00008958FE195E00E94AE031092730308952B
:104C00008BE195E00E94AE030E941224089587E193
:104C100095E00E94AE036091700381E0611101C0D4
:104C200080E00E940924089583E195E00E94AE038C
:104C30009091740381E0943009F080E060917003FA
:104C40000E940F240895209141032F5F822F62E379
:104C50000E94732D992319F0209341030895109217
:104C60004103809145038823E9F0809174038430E7
:104C7000B9F49091E9008091EC0087958827879599
:104C80009F70892B95E09093E9009091EB0090FF45
:104C900004C09091EE0097FD08C08F708093E900EA
:104CA0001092450308951092F1009091E80095FD4F
:104CB000FACF9091E80090FFF0CF9091E8009E77B6
:104CC0009093E800EACF42E061EC81E00E94E429A1
:104CD00042E261EC84E00E94E42942E261EC82E07D
:104CE0000E94E42942E260EC83E00E94E42942E26F
:104CF00061EC85E00E94E4299091740381E0943096
:104D000009F080E0609170030E940324089580916F
:104D10007603893089F148F4823009F4A1C08330E8
:104D200009F45BC0813041F008958A3009F488C0ED
:104D30008B3009F46DC0089580917503813A09F0B4
:104D40004BC08091E800877F8093E80080917903D1
:104D500090917A03892B61F060E080E090E070E050
:104D60000E942F298091E8008B778093E8000895B6
:104D700068E086E493E0F3CF80917503813261F5BA
:104D80008091790390917A038D7F892B29F5809109
:104D9000E800877F8093E8008091E80082FF18C0D8
:104DA0009091F3008091F200029731F48091F1002C
:104DB000813011F0863021F48091F10080934E0310
:104DC0008091E8008B778093E8000E94182A04C045
:104DD000809174038111E0CF089580917503813A29
:104DE000D9F78091790390917A03892BA9F7809163
:104DF000E800877F8093E8008091E80080FFFCCF87
:104E0000809130018093F1008091E8008E77DBCFB4
:104E100080917503813201F78091790390917A0333
:104E2000892BD1F68091E800877F8093E8000E946B
:104E3000182A80917703809330010E946C0B0895AB
:104E400080917503813241F68091E800877F8093DD
:104E5000E8000E94182A8091780380934F030895F8
:104E600080917503813A09F0B7CF8091E800877F80
:104E70008093E8008091E80080FFFCCF80914F0391
:104E8000C1CF9FB7F894109245039FBF90917403D0
:104E9000943009F048C02091E9009091EC0097957A
:104EA000992797952F70922B25E02093E900209168
:104EB000EB0020FF35C02091EE0027FF31C020918C
:104EC0004003222321F02091E80025FF29C0109201
:104ED000400326E03091E80035FF14C08093F100D4
:104EE0008091E80085FD28C08091E80080FFFCCF1C
:104EF0008091E8008E778093E8009F709093E9009E
:104F000080E0089530917403343051F43091EB0017
:104F100035FD06C02150211108C081E08093400377
:104F20009F709093E9008FEF0895EFE9FFE03197CC
:104F3000F1F700C00000CECF8FB7F89421E02093A6
:104F400045038FBFDACF84B7877F84BF0FB6F8944D
:104F5000A895809160008861809360001092600045
:104F60000FBE80E890E00FB6F894809361009093B4
:104F700061000FBE0E94182408950E94682A0E94B2
:104F8000C52AE2EEF0E080818460808378940E94FC
:104F9000472D089584E291E00E94072308958091AF
:104FA0007403853051F48FE095E00E94AE03809148
:104FB0007403853019F00E94922408950E9467249A
:104FC00080917203882399F30E942524882379F322
:104FD0000E947B280E946C0BEACFA0E2B0E0E3EFD6
:104FE000F7E20C94B02D80917403843081F483E057
:104FF0008093E9008091E80082FF09C08091E80079
:1050000085FD09C08091E8008B778093E800A09629
:10501000E2E00C94CC2D40E050E060E270E0CE0184
:1050200001960E94E0288091E8008B778093E80049
:1050300060E2CE0101960E94E31BE9CF0E94212885
:105040000895FC01CB01DA012F2F332723303105DE
:1050500021F168F42130310509F443C022303105D3
:1050600009F444C080E090E020E030E024C0213228
:10507000310551F122323105A9F76430710590F7FD
:10508000FB01EE0FFF1FED53FE4F20813181815454
:105090009E4FFC01808190E00EC0CF019927E13046
:1050A00069F08230910569F0E5E7F5E0892BD1F6EA
:1050B000849190E09F012D933C930895E3E6F5E001
:1050C000F7CFE7E2F5E0F4CF6430710558F6FB0165
:1050D000EE0FFF1FE553FE4F2081318189E090E004
:1050E000EACF82E190E024EF35E0E5CF8BE790E076
:1050F00029E735E0E0CF80E189BD82E189BD09B4CF
:1051000000FEFDCF8091D8008F7D8093D8008091E4
:10511000E00082608093E0008091E00081FDFCCFA0
:105120000895AF92BF92CF92DF92FF920F931F9399
:10513000CF93DF936C01EB018A010E94372AF82E8E
:10514000811123C00115110539F0F8018081918189
:10515000C81BD90BC80ED91EA12CB12C2097A9F0C1
:105160008091E80085FD22C08091E8008E778093D1
:10517000E80001151105A1F0F801808191818A0DE7
:105180009B1D9183808385E0F82E8F2DDF91CF9139
:105190001F910F91FF90DF90CF90BF90AF90089537
:1051A0000E94372A8823E1F2F82EEFCFF601819191
:1051B0006F018093F1002197FFEFAF1ABF0ACECFA6
:1051C000AF92BF92CF92DF92FF920F931F93CF9334
:1051D000DF936C01EB018A010E94372AF82E8111BE
:1051E00023C00115110539F0F80180819181C81B98
:1051F000D90BC80ED91EA12CB12C2097A9F08091F3
:10520000E80085FD22C08091E8008B778093E8005C
:1052100001151105A1F0F801808191818A0D9B1D76
:105220009183808385E0F82E8F2DDF91CF911F91A0
:105230000F91FF90DF90CF90BF90AF9008950E94A4
:10524000372A8823E1F2F82EEFCF8091F100F601A2
:1052500081936F012197FFEFAF1ABF0ACECFFC01F8
:105260009B0180917B0390917C038617970718F030
:10527000672B61F0C90140E0009771F441110CC047
:105280008091E80082FF35C080E008958091E800B9
:105290008E778093E800EECF209174032223A9F14A
:1052A0002530A9F12091E80023FD2DC02091E800D0
:1052B00022FDE6CF2091E80020FFDECF3091F30001
:1052C0002091F200009719F02830310558F041E0A4
:1052D0002830310509F040E02091E8002E77209336
:1052E000E800CACF41914093F10001972F5F3F4FF3
:1052F000E9CF80917403882341F0853041F080919B
:10530000E80083FFBDCF81E0089582E0089583E047
:105310000895FC019B0180917B0390917C0386178B
:10532000970718F0672B61F0C90140E0009771F40E
:1053300041110CC08091E80082FF36C080E00895E2
:105340008091E8008E778093E800EECF209174037F
:105350002223B1F12530B1F12091E80023FD2EC0C8
:105360002091E80022FDE6CF2091E80020FFDECF6B
:105370003091F3002091F200009719F028303105A8
:1053800058F041E02830310509F040E02091E80074
:105390002E772093E800CACF44914093F1003196D4
:1053A00001972F5F3F4FE8CF80917403882341F02E
:1053B000853041F08091E80083FFBCCF81E0089503
:1053C00082E0089583E00895982F973028F08F7039
:1053D0008093E90081E008959093E900242F762FCF
:1053E00050E0981731F07091EC002091ED00509151
:1053F000F00021FD02C09F5FE8CF3091EB003E7FBF
:105400003093EB003091ED003D7F3093ED00309113
:10541000EB0031603093EB007093EC002093ED00D3
:105420005093F0002091EE0027FDE5CF80E0089535
:105430008091750387FF13C08091E80082FF06C04A
:105440008091E8008B778093E80004C0809174031A
:105450008111F2CF0895809174038823D9F380914C
:10546000E80080FFF8CF8091E8008E77ECCF2091A4
:10547000E4003091E50095E6A9018091EC0081708F
:10548000882331F08091E80080FF06C080E0089515
:105490002091E80022FD1BC080917403882391F0C5
:1054A000853091F08091EB0085FD10C02091E400E3
:1054B0003091E5004217530701F391509111DCCF71
:1054C00084E0089582E0089583E0089581E00895DE
:1054D0000E94D72A0E94DF2AE0EEF0E080818160FE
:1054E0008083E8EDF0E080818F77808319BCA7EDA1
:1054F000B0E08C918E7F8C9380818F7E8083109220
:10550000730308950F931F93CF93DF930E94D72ABD
:105510000E94DF2AC8EDD0E088818F778883888158
:105520008068888388818F7D888319BC109274037A
:1055300010927003109272031092710300EE10E04B
:10554000F80180818B7F808388818160888342E03D
:1055500060E080E00E94E429E1EEF0E080818E7F4F
:105560008083E2EEF0E080818160808380818860CA
:105570008083F80180818E7F808388818061888329
:10558000DF91CF911F910F910895E8EDF0E08081B8
:105590008F7E8083E7EDF0E080818160808384E00E
:1055A00082BF81E0809373030E94822A0895E8ED10
:1055B000F0E080818E7F80831092E2000895109247
:1055C000DA001092E10008951F920F920FB60F9229
:1055D00011242F933F934F935F936F937F938F93F8
:1055E0009F93AF93BF93EF93FF938091E10082FF6E
:1055F0000BC08091E20082FF07C08091E1008B7FA9
:105600008093E1000E9423268091DA0080FF19C078
:105610008091D80080FF15C08091DA008E7F809342
:10562000DA008091D90080FF94C080E189BD82E1D9
:1056300089BD09B400FEFDCF81E0809374030E9410
:10564000E7258091E10080FF19C08091E20080FF92
:1056500015C08091E2008E7F8093E2008091E2008D
:1056600080618093E2008091D80080628093D800AE
:1056700019BC85E0809374030E9407268091E100A5
:1056800084FF29C08091E20084FF25C080E189BDAC
:1056900082E189BD09B400FEFDCF8091D8008F7DE5
:1056A0008093D8008091E1008F7E8093E10080910B
:1056B000E2008F7E8093E2008091E200816080931F
:1056C000E20080917003882309F449C084E080934C
:1056D00074030E9414268091E10083FF29C0809109
:1056E000E20083FF25C08091E100877F8093E10085
:1056F00082E080937403109270038091E1008E7FAA
:105700008093E1008091E2008E7F8093E20080919F
:10571000E20080618093E20042E060E080E00E946D
:10572000E4298091F00088608093F0000E940026B8
:10573000FF91EF91BF91AF919F918F917F916F9169
:105740005F914F913F912F910F900FBE0F901F903F
:10575000189519BC109274030E94F92572CF80919C
:10576000E30087FF02C083E0B2CF81E0B0CF1F9299
:105770000F920FB60F921124FF920F931F932F9346
:105780003F934F935F936F937F938F939F93AF93C9
:10579000BF93CF93DF93EF93FF9309EE10E0F801EF
:1057A0008081C091EC00C795CC27C7958F70FC2EE7
:1057B000F82A1082C0EFD0E08881877F88837894B0
:1057C0000E94002CF8011082888188608883CF2D88
:1057D000CF70C083FF91EF91DF91CF91BF91AF91D7
:1057E0009F918F917F916F915F914F913F912F91F9
:1057F0001F910F91FF900F900FBE0F901F90189563
:10580000AAE2B0E0E6E0FCE20C94AF2D85E793E07D
:10581000FC0101962091F100208323E08D3792074F
:10582000B9F70E9487268091E80083FF38C08091F5
:105830007503909176039A3090F5E92FF0E0E157E7
:10584000F14D0C94932D803889F0823841F5809188
:1058500079038F70873018F58093E9008091EB0011
:1058600085FB882780F91092E90006C080917103BA
:1058700090917203911182609091E800977F9093CC
:10588000E8008093F1001092F1008091E8008E779B
:1058900023C0811116C080917703813011F180916E
:1058A000E80083FF0AC08091E800877F8093E800CA
:1058B0008091EB0080628093EB00AA96E3E00C9469
:1058C000CB2D823061F780917703882389F0109285
:1058D000E9008091E800877F8093E8000E94182A01
:1058E000DECF81E0933009F080E080937203EFCF48
:1058F000809179038F702FEF280F263080F68093E8
:10590000E9002091EB0020FFE2CF933031F4809149
:10591000EB0080628093EB00DACF9091EB00906116
:105920009093EB0021E030E0A90102C0440F551F25
:105930008A95E2F74093EA001092EA008091EB002A
:105940008860E8CF8111ABCF109177031F778091EA
:10595000E3008078812B8093E3008091E800877FCB
:105960008093E8000E94182A8091E80080FFFCCF15
:105970008091E30080688093E30083E0111101C00F
:1059800082E0809374038BCF8058823008F087CFF9
:1059900080917703909178038C3D53E0950799F5BA
:1059A00083E08A838AE289834FB7F894DE011396F5
:1059B00020E03EE051E2E32FF0E050935700849165
:1059C00020FF03C082958F703F5F8F708A30C8F0D0
:1059D000895C90E08D939D932F5F243161F74FBFD9
:1059E0008091E800877F8093E8006AE270E0CE0152
:1059F00001960E942F298091E8008B778093E80020
:105A00004ECF805DE6CF6091790370917A03AE014D
:105A10004F5F5F4F0E941E28BC01892B09F43FCFC6
:105A20008091E800877F8093E80089819A810E94B5
:105A30008929E1CF803809F032CF8091E800877F53
:105A40008093E800809170038093F1001ECF811154
:105A500026CF90917703923008F021CF8091E80013
:105A6000877F8093E800909370030E94182A8091AA
:105A70007003882331F084E0809374030E946326CE
:105A80000ECF8091E30087FDF6CF81E0F5CFCF9375
:105A900080917403882399F08091E900C091EC0013
:105AA000C795CC27C7958F70C82B1092E9008091BD
:105AB000E80083FD0E94002CCF70C093E900CF91D5
:105AC00008950E94682A109274030895E8EDF0E0AA
:105AD0008081806180838AE18A95F1F700C080919E
